{
	"contracts/Struct.sol": {
		"Struct": {
			"abi": [
				{
					"inputs": [
						{
							"internalType": "string",
							"name": "_description",
							"type": "string"
						}
					],
					"name": "createGame",
					"outputs": [],
					"stateMutability": "nonpayable",
					"type": "function"
				},
				{
					"inputs": [
						{
							"internalType": "uint256",
							"name": "_index",
							"type": "uint256"
						}
					],
					"name": "get",
					"outputs": [
						{
							"components": [
								{
									"internalType": "string",
									"name": "description",
									"type": "string"
								},
								{
									"internalType": "bool",
									"name": "played",
									"type": "bool"
								}
							],
							"internalType": "struct Games",
							"name": "",
							"type": "tuple"
						}
					],
					"stateMutability": "view",
					"type": "function"
				},
				{
					"inputs": [
						{
							"internalType": "uint256",
							"name": "_index",
							"type": "uint256"
						}
					],
					"name": "setOpposite",
					"outputs": [],
					"stateMutability": "nonpayable",
					"type": "function"
				},
				{
					"inputs": [
						{
							"internalType": "uint256",
							"name": "_index",
							"type": "uint256"
						},
						{
							"internalType": "string",
							"name": "_description",
							"type": "string"
						}
					],
					"name": "updateDescription",
					"outputs": [],
					"stateMutability": "nonpayable",
					"type": "function"
				}
			],
			"devdoc": {
				"kind": "dev",
				"methods": {},
				"version": 1
			},
			"evm": {
				"assembly": "    /* \"contracts/Struct.sol\":91:903  contract Struct{... */\n  mstore(0x40, 0x80)\n  callvalue\n  dup1\n  iszero\n  tag_1\n  jumpi\n  0x00\n  dup1\n  revert\ntag_1:\n  pop\n  dataSize(sub_0)\n  dup1\n  dataOffset(sub_0)\n  0x00\n  codecopy\n  0x00\n  return\nstop\n\nsub_0: assembly {\n        /* \"contracts/Struct.sol\":91:903  contract Struct{... */\n      mstore(0x40, 0x80)\n      callvalue\n      dup1\n      iszero\n      tag_1\n      jumpi\n      0x00\n      dup1\n      revert\n    tag_1:\n      pop\n      jumpi(tag_2, lt(calldatasize, 0x04))\n      shr(0xe0, calldataload(0x00))\n      dup1\n      0x14dee4b3\n      eq\n      tag_3\n      jumpi\n      dup1\n      0x1ec039d5\n      eq\n      tag_4\n      jumpi\n      dup1\n      0x2ebc0504\n      eq\n      tag_5\n      jumpi\n      dup1\n      0x9507d39a\n      eq\n      tag_6\n      jumpi\n    tag_2:\n      0x00\n      dup1\n      revert\n        /* \"contracts/Struct.sol\":591:761  function updateDescription(uint _index, string memory _description) public {... */\n    tag_3:\n      tag_7\n      0x04\n      dup1\n      calldatasize\n      sub\n      dup2\n      add\n      swap1\n      tag_8\n      swap2\n      swap1\n      tag_9\n      jump\t// in\n    tag_8:\n      tag_10\n      jump\t// in\n    tag_7:\n      stop\n        /* \"contracts/Struct.sol\":769:900  function setOpposite(uint _index) public {... */\n    tag_4:\n      tag_11\n      0x04\n      dup1\n      calldatasize\n      sub\n      dup2\n      add\n      swap1\n      tag_12\n      swap2\n      swap1\n      tag_13\n      jump\t// in\n    tag_12:\n      tag_14\n      jump\t// in\n    tag_11:\n      stop\n        /* \"contracts/Struct.sol\":251:583  function createGame(string memory _description) public {... */\n    tag_5:\n      tag_15\n      0x04\n      dup1\n      calldatasize\n      sub\n      dup2\n      add\n      swap1\n      tag_16\n      swap2\n      swap1\n      tag_17\n      jump\t// in\n    tag_16:\n      tag_18\n      jump\t// in\n    tag_15:\n      stop\n        /* \"contracts/Struct.sol\":145:243  function get(uint _index) public view returns(Games memory){... */\n    tag_6:\n      tag_19\n      0x04\n      dup1\n      calldatasize\n      sub\n      dup2\n      add\n      swap1\n      tag_20\n      swap2\n      swap1\n      tag_13\n      jump\t// in\n    tag_20:\n      tag_21\n      jump\t// in\n    tag_19:\n      mload(0x40)\n      tag_22\n      swap2\n      swap1\n      tag_23\n      jump\t// in\n    tag_22:\n      mload(0x40)\n      dup1\n      swap2\n      sub\n      swap1\n      return\n        /* \"contracts/Struct.sol\":591:761  function updateDescription(uint _index, string memory _description) public {... */\n    tag_10:\n        /* \"contracts/Struct.sol\":677:695  Games storage game */\n      0x00\n        /* \"contracts/Struct.sol\":698:703  games */\n      dup1\n        /* \"contracts/Struct.sol\":704:710  _index */\n      dup4\n        /* \"contracts/Struct.sol\":698:711  games[_index] */\n      dup2\n      sload\n      dup2\n      lt\n      tag_25\n      jumpi\n      tag_26\n      tag_27\n      jump\t// in\n    tag_26:\n    tag_25:\n      swap1\n      0x00\n      mstore\n      keccak256(0x00, 0x20)\n      swap1\n      0x02\n      mul\n      add\n        /* \"contracts/Struct.sol\":677:711  Games storage game = games[_index] */\n      swap1\n      pop\n        /* \"contracts/Struct.sol\":741:753  _description */\n      dup2\n        /* \"contracts/Struct.sol\":722:726  game */\n      dup2\n        /* \"contracts/Struct.sol\":722:738  game.description */\n      0x00\n      add\n        /* \"contracts/Struct.sol\":722:753  game.description = _description */\n      swap1\n      dup2\n      tag_29\n      swap2\n      swap1\n      tag_30\n      jump\t// in\n    tag_29:\n      pop\n        /* \"contracts/Struct.sol\":666:761  {... */\n      pop\n        /* \"contracts/Struct.sol\":591:761  function updateDescription(uint _index, string memory _description) public {... */\n      pop\n      pop\n      jump\t// out\n        /* \"contracts/Struct.sol\":769:900  function setOpposite(uint _index) public {... */\n    tag_14:\n        /* \"contracts/Struct.sol\":821:839  Games storage game */\n      0x00\n        /* \"contracts/Struct.sol\":842:847  games */\n      dup1\n        /* \"contracts/Struct.sol\":848:854  _index */\n      dup3\n        /* \"contracts/Struct.sol\":842:855  games[_index] */\n      dup2\n      sload\n      dup2\n      lt\n      tag_32\n      jumpi\n      tag_33\n      tag_27\n      jump\t// in\n    tag_33:\n    tag_32:\n      swap1\n      0x00\n      mstore\n      keccak256(0x00, 0x20)\n      swap1\n      0x02\n      mul\n      add\n        /* \"contracts/Struct.sol\":821:855  Games storage game = games[_index] */\n      swap1\n      pop\n        /* \"contracts/Struct.sol\":881:885  game */\n      dup1\n        /* \"contracts/Struct.sol\":881:892  game.played */\n      0x01\n      add\n      0x00\n      swap1\n      sload\n      swap1\n      0x0100\n      exp\n      swap1\n      div\n      0xff\n      and\n        /* \"contracts/Struct.sol\":880:892  !game.played */\n      iszero\n        /* \"contracts/Struct.sol\":866:870  game */\n      dup2\n        /* \"contracts/Struct.sol\":866:877  game.played */\n      0x01\n      add\n      0x00\n        /* \"contracts/Struct.sol\":866:892  game.played = !game.played */\n      0x0100\n      exp\n      dup2\n      sload\n      dup2\n      0xff\n      mul\n      not\n      and\n      swap1\n      dup4\n      iszero\n      iszero\n      mul\n      or\n      swap1\n      sstore\n      pop\n        /* \"contracts/Struct.sol\":810:900  {... */\n      pop\n        /* \"contracts/Struct.sol\":769:900  function setOpposite(uint _index) public {... */\n      pop\n      jump\t// out\n        /* \"contracts/Struct.sol\":251:583  function createGame(string memory _description) public {... */\n    tag_18:\n        /* \"contracts/Struct.sol\":317:322  games */\n      0x00\n        /* \"contracts/Struct.sol\":328:354  Games(_description, false) */\n      mload(0x40)\n      dup1\n      0x40\n      add\n      0x40\n      mstore\n      dup1\n        /* \"contracts/Struct.sol\":334:346  _description */\n      dup4\n        /* \"contracts/Struct.sol\":328:354  Games(_description, false) */\n      dup2\n      mstore\n      0x20\n      add\n        /* \"contracts/Struct.sol\":348:353  false */\n      0x00\n        /* \"contracts/Struct.sol\":328:354  Games(_description, false) */\n      iszero\n      iszero\n      dup2\n      mstore\n      pop\n        /* \"contracts/Struct.sol\":317:355  games.push(Games(_description, false)) */\n      swap1\n      dup1\n      0x01\n      dup2\n      sload\n      add\n      dup1\n      dup3\n      sstore\n      dup1\n      swap2\n      pop\n      pop\n      0x01\n      swap1\n      sub\n      swap1\n      0x00\n      mstore\n      keccak256(0x00, 0x20)\n      swap1\n      0x02\n      mul\n      add\n      0x00\n      swap1\n      swap2\n      swap1\n      swap2\n      swap1\n      swap2\n      pop\n      0x00\n      dup3\n      add\n      mload\n      dup2\n      0x00\n      add\n      swap1\n      dup2\n      tag_37\n      swap2\n      swap1\n      tag_30\n      jump\t// in\n    tag_37:\n      pop\n      0x20\n      dup3\n      add\n      mload\n      dup2\n      0x01\n      add\n      exp(0x0100, 0x00)\n      dup2\n      sload\n      dup2\n      0xff\n      mul\n      not\n      and\n      swap1\n      dup4\n      iszero\n      iszero\n      mul\n      or\n      swap1\n      sstore\n      pop\n      pop\n      pop\n        /* \"contracts/Struct.sol\":251:583  function createGame(string memory _description) public {... */\n      pop\n      jump\t// out\n        /* \"contracts/Struct.sol\":145:243  function get(uint _index) public view returns(Games memory){... */\n    tag_21:\n        /* \"contracts/Struct.sol\":191:203  Games memory */\n      tag_38\n      tag_39\n      jump\t// in\n    tag_38:\n        /* \"contracts/Struct.sol\":222:227  games */\n      0x00\n        /* \"contracts/Struct.sol\":228:234  _index */\n      dup3\n        /* \"contracts/Struct.sol\":222:235  games[_index] */\n      dup2\n      sload\n      dup2\n      lt\n      tag_41\n      jumpi\n      tag_42\n      tag_27\n      jump\t// in\n    tag_42:\n    tag_41:\n      swap1\n      0x00\n      mstore\n      keccak256(0x00, 0x20)\n      swap1\n      0x02\n      mul\n      add\n        /* \"contracts/Struct.sol\":215:235  return games[_index] */\n      mload(0x40)\n      dup1\n      0x40\n      add\n      0x40\n      mstore\n      swap1\n      dup2\n      0x00\n      dup3\n      add\n      dup1\n      sload\n      tag_44\n      swap1\n      tag_45\n      jump\t// in\n    tag_44:\n      dup1\n      0x1f\n      add\n      0x20\n      dup1\n      swap2\n      div\n      mul\n      0x20\n      add\n      mload(0x40)\n      swap1\n      dup2\n      add\n      0x40\n      mstore\n      dup1\n      swap3\n      swap2\n      swap1\n      dup2\n      dup2\n      mstore\n      0x20\n      add\n      dup3\n      dup1\n      sload\n      tag_46\n      swap1\n      tag_45\n      jump\t// in\n    tag_46:\n      dup1\n      iszero\n      tag_47\n      jumpi\n      dup1\n      0x1f\n      lt\n      tag_48\n      jumpi\n      0x0100\n      dup1\n      dup4\n      sload\n      div\n      mul\n      dup4\n      mstore\n      swap2\n      0x20\n      add\n      swap2\n      jump(tag_47)\n    tag_48:\n      dup3\n      add\n      swap2\n      swap1\n      0x00\n      mstore\n      keccak256(0x00, 0x20)\n      swap1\n    tag_49:\n      dup2\n      sload\n      dup2\n      mstore\n      swap1\n      0x01\n      add\n      swap1\n      0x20\n      add\n      dup1\n      dup4\n      gt\n      tag_49\n      jumpi\n      dup3\n      swap1\n      sub\n      0x1f\n      and\n      dup3\n      add\n      swap2\n    tag_47:\n      pop\n      pop\n      pop\n      pop\n      pop\n      dup2\n      mstore\n      0x20\n      add\n      0x01\n      dup3\n      add\n      0x00\n      swap1\n      sload\n      swap1\n      0x0100\n      exp\n      swap1\n      div\n      0xff\n      and\n      iszero\n      iszero\n      iszero\n      iszero\n      dup2\n      mstore\n      pop\n      pop\n      swap1\n      pop\n        /* \"contracts/Struct.sol\":145:243  function get(uint _index) public view returns(Games memory){... */\n      swap2\n      swap1\n      pop\n      jump\t// out\n    tag_39:\n      mload(0x40)\n      dup1\n      0x40\n      add\n      0x40\n      mstore\n      dup1\n      0x60\n      dup2\n      mstore\n      0x20\n      add\n      iszero(iszero(0x00))\n      dup2\n      mstore\n      pop\n      swap1\n      jump\t// out\n        /* \"#utility.yul\":7:82   */\n    tag_50:\n        /* \"#utility.yul\":40:46   */\n      0x00\n        /* \"#utility.yul\":73:75   */\n      0x40\n        /* \"#utility.yul\":67:76   */\n      mload\n        /* \"#utility.yul\":57:76   */\n      swap1\n      pop\n        /* \"#utility.yul\":7:82   */\n      swap1\n      jump\t// out\n        /* \"#utility.yul\":88:205   */\n    tag_51:\n        /* \"#utility.yul\":197:198   */\n      0x00\n        /* \"#utility.yul\":194:195   */\n      dup1\n        /* \"#utility.yul\":187:199   */\n      revert\n        /* \"#utility.yul\":211:328   */\n    tag_52:\n        /* \"#utility.yul\":320:321   */\n      0x00\n        /* \"#utility.yul\":317:318   */\n      dup1\n        /* \"#utility.yul\":310:322   */\n      revert\n        /* \"#utility.yul\":334:411   */\n    tag_53:\n        /* \"#utility.yul\":371:378   */\n      0x00\n        /* \"#utility.yul\":400:405   */\n      dup2\n        /* \"#utility.yul\":389:405   */\n      swap1\n      pop\n        /* \"#utility.yul\":334:411   */\n      swap2\n      swap1\n      pop\n      jump\t// out\n        /* \"#utility.yul\":417:539   */\n    tag_54:\n        /* \"#utility.yul\":490:514   */\n      tag_95\n        /* \"#utility.yul\":508:513   */\n      dup2\n        /* \"#utility.yul\":490:514   */\n      tag_53\n      jump\t// in\n    tag_95:\n        /* \"#utility.yul\":483:488   */\n      dup2\n        /* \"#utility.yul\":480:515   */\n      eq\n        /* \"#utility.yul\":470:533   */\n      tag_96\n      jumpi\n        /* \"#utility.yul\":529:530   */\n      0x00\n        /* \"#utility.yul\":526:527   */\n      dup1\n        /* \"#utility.yul\":519:531   */\n      revert\n        /* \"#utility.yul\":470:533   */\n    tag_96:\n        /* \"#utility.yul\":417:539   */\n      pop\n      jump\t// out\n        /* \"#utility.yul\":545:684   */\n    tag_55:\n        /* \"#utility.yul\":591:596   */\n      0x00\n        /* \"#utility.yul\":629:635   */\n      dup2\n        /* \"#utility.yul\":616:636   */\n      calldataload\n        /* \"#utility.yul\":607:636   */\n      swap1\n      pop\n        /* \"#utility.yul\":645:678   */\n      tag_98\n        /* \"#utility.yul\":672:677   */\n      dup2\n        /* \"#utility.yul\":645:678   */\n      tag_54\n      jump\t// in\n    tag_98:\n        /* \"#utility.yul\":545:684   */\n      swap3\n      swap2\n      pop\n      pop\n      jump\t// out\n        /* \"#utility.yul\":690:807   */\n    tag_56:\n        /* \"#utility.yul\":799:800   */\n      0x00\n        /* \"#utility.yul\":796:797   */\n      dup1\n        /* \"#utility.yul\":789:801   */\n      revert\n        /* \"#utility.yul\":813:930   */\n    tag_57:\n        /* \"#utility.yul\":922:923   */\n      0x00\n        /* \"#utility.yul\":919:920   */\n      dup1\n        /* \"#utility.yul\":912:924   */\n      revert\n        /* \"#utility.yul\":936:1038   */\n    tag_58:\n        /* \"#utility.yul\":977:983   */\n      0x00\n        /* \"#utility.yul\":1028:1030   */\n      0x1f\n        /* \"#utility.yul\":1024:1031   */\n      not\n        /* \"#utility.yul\":1019:1021   */\n      0x1f\n        /* \"#utility.yul\":1012:1017   */\n      dup4\n        /* \"#utility.yul\":1008:1022   */\n      add\n        /* \"#utility.yul\":1004:1032   */\n      and\n        /* \"#utility.yul\":994:1032   */\n      swap1\n      pop\n        /* \"#utility.yul\":936:1038   */\n      swap2\n      swap1\n      pop\n      jump\t// out\n        /* \"#utility.yul\":1044:1224   */\n    tag_59:\n        /* \"#utility.yul\":1092:1169   */\n      0x4e487b7100000000000000000000000000000000000000000000000000000000\n        /* \"#utility.yul\":1089:1090   */\n      0x00\n        /* \"#utility.yul\":1082:1170   */\n      mstore\n        /* \"#utility.yul\":1189:1193   */\n      0x41\n        /* \"#utility.yul\":1186:1187   */\n      0x04\n        /* \"#utility.yul\":1179:1194   */\n      mstore\n        /* \"#utility.yul\":1213:1217   */\n      0x24\n        /* \"#utility.yul\":1210:1211   */\n      0x00\n        /* \"#utility.yul\":1203:1218   */\n      revert\n        /* \"#utility.yul\":1230:1511   */\n    tag_60:\n        /* \"#utility.yul\":1313:1340   */\n      tag_104\n        /* \"#utility.yul\":1335:1339   */\n      dup3\n        /* \"#utility.yul\":1313:1340   */\n      tag_58\n      jump\t// in\n    tag_104:\n        /* \"#utility.yul\":1305:1311   */\n      dup2\n        /* \"#utility.yul\":1301:1341   */\n      add\n        /* \"#utility.yul\":1443:1449   */\n      dup2\n        /* \"#utility.yul\":1431:1441   */\n      dup2\n        /* \"#utility.yul\":1428:1450   */\n      lt\n        /* \"#utility.yul\":1407:1425   */\n      0xffffffffffffffff\n        /* \"#utility.yul\":1395:1405   */\n      dup3\n        /* \"#utility.yul\":1392:1426   */\n      gt\n        /* \"#utility.yul\":1389:1451   */\n      or\n        /* \"#utility.yul\":1386:1474   */\n      iszero\n      tag_105\n      jumpi\n        /* \"#utility.yul\":1454:1472   */\n      tag_106\n      tag_59\n      jump\t// in\n    tag_106:\n        /* \"#utility.yul\":1386:1474   */\n    tag_105:\n        /* \"#utility.yul\":1494:1504   */\n      dup1\n        /* \"#utility.yul\":1490:1492   */\n      0x40\n        /* \"#utility.yul\":1483:1505   */\n      mstore\n        /* \"#utility.yul\":1273:1511   */\n      pop\n        /* \"#utility.yul\":1230:1511   */\n      pop\n      pop\n      jump\t// out\n        /* \"#utility.yul\":1517:1646   */\n    tag_61:\n        /* \"#utility.yul\":1551:1557   */\n      0x00\n        /* \"#utility.yul\":1578:1598   */\n      tag_108\n      tag_50\n      jump\t// in\n    tag_108:\n        /* \"#utility.yul\":1568:1598   */\n      swap1\n      pop\n        /* \"#utility.yul\":1607:1640   */\n      tag_109\n        /* \"#utility.yul\":1635:1639   */\n      dup3\n        /* \"#utility.yul\":1627:1633   */\n      dup3\n        /* \"#utility.yul\":1607:1640   */\n      tag_60\n      jump\t// in\n    tag_109:\n        /* \"#utility.yul\":1517:1646   */\n      swap2\n      swap1\n      pop\n      jump\t// out\n        /* \"#utility.yul\":1652:1960   */\n    tag_62:\n        /* \"#utility.yul\":1714:1718   */\n      0x00\n        /* \"#utility.yul\":1804:1822   */\n      0xffffffffffffffff\n        /* \"#utility.yul\":1796:1802   */\n      dup3\n        /* \"#utility.yul\":1793:1823   */\n      gt\n        /* \"#utility.yul\":1790:1846   */\n      iszero\n      tag_111\n      jumpi\n        /* \"#utility.yul\":1826:1844   */\n      tag_112\n      tag_59\n      jump\t// in\n    tag_112:\n        /* \"#utility.yul\":1790:1846   */\n    tag_111:\n        /* \"#utility.yul\":1864:1893   */\n      tag_113\n        /* \"#utility.yul\":1886:1892   */\n      dup3\n        /* \"#utility.yul\":1864:1893   */\n      tag_58\n      jump\t// in\n    tag_113:\n        /* \"#utility.yul\":1856:1893   */\n      swap1\n      pop\n        /* \"#utility.yul\":1948:1952   */\n      0x20\n        /* \"#utility.yul\":1942:1946   */\n      dup2\n        /* \"#utility.yul\":1938:1953   */\n      add\n        /* \"#utility.yul\":1930:1953   */\n      swap1\n      pop\n        /* \"#utility.yul\":1652:1960   */\n      swap2\n      swap1\n      pop\n      jump\t// out\n        /* \"#utility.yul\":1966:2112   */\n    tag_63:\n        /* \"#utility.yul\":2063:2069   */\n      dup3\n        /* \"#utility.yul\":2058:2061   */\n      dup2\n        /* \"#utility.yul\":2053:2056   */\n      dup4\n        /* \"#utility.yul\":2040:2070   */\n      calldatacopy\n        /* \"#utility.yul\":2104:2105   */\n      0x00\n        /* \"#utility.yul\":2095:2101   */\n      dup4\n        /* \"#utility.yul\":2090:2093   */\n      dup4\n        /* \"#utility.yul\":2086:2102   */\n      add\n        /* \"#utility.yul\":2079:2106   */\n      mstore\n        /* \"#utility.yul\":1966:2112   */\n      pop\n      pop\n      pop\n      jump\t// out\n        /* \"#utility.yul\":2118:2543   */\n    tag_64:\n        /* \"#utility.yul\":2196:2201   */\n      0x00\n        /* \"#utility.yul\":2221:2287   */\n      tag_116\n        /* \"#utility.yul\":2237:2286   */\n      tag_117\n        /* \"#utility.yul\":2279:2285   */\n      dup5\n        /* \"#utility.yul\":2237:2286   */\n      tag_62\n      jump\t// in\n    tag_117:\n        /* \"#utility.yul\":2221:2287   */\n      tag_61\n      jump\t// in\n    tag_116:\n        /* \"#utility.yul\":2212:2287   */\n      swap1\n      pop\n        /* \"#utility.yul\":2310:2316   */\n      dup3\n        /* \"#utility.yul\":2303:2308   */\n      dup2\n        /* \"#utility.yul\":2296:2317   */\n      mstore\n        /* \"#utility.yul\":2348:2352   */\n      0x20\n        /* \"#utility.yul\":2341:2346   */\n      dup2\n        /* \"#utility.yul\":2337:2353   */\n      add\n        /* \"#utility.yul\":2386:2389   */\n      dup5\n        /* \"#utility.yul\":2377:2383   */\n      dup5\n        /* \"#utility.yul\":2372:2375   */\n      dup5\n        /* \"#utility.yul\":2368:2384   */\n      add\n        /* \"#utility.yul\":2365:2390   */\n      gt\n        /* \"#utility.yul\":2362:2474   */\n      iszero\n      tag_118\n      jumpi\n        /* \"#utility.yul\":2393:2472   */\n      tag_119\n      tag_57\n      jump\t// in\n    tag_119:\n        /* \"#utility.yul\":2362:2474   */\n    tag_118:\n        /* \"#utility.yul\":2483:2537   */\n      tag_120\n        /* \"#utility.yul\":2530:2536   */\n      dup5\n        /* \"#utility.yul\":2525:2528   */\n      dup3\n        /* \"#utility.yul\":2520:2523   */\n      dup6\n        /* \"#utility.yul\":2483:2537   */\n      tag_63\n      jump\t// in\n    tag_120:\n        /* \"#utility.yul\":2202:2543   */\n      pop\n        /* \"#utility.yul\":2118:2543   */\n      swap4\n      swap3\n      pop\n      pop\n      pop\n      jump\t// out\n        /* \"#utility.yul\":2563:2903   */\n    tag_65:\n        /* \"#utility.yul\":2619:2624   */\n      0x00\n        /* \"#utility.yul\":2668:2671   */\n      dup3\n        /* \"#utility.yul\":2661:2665   */\n      0x1f\n        /* \"#utility.yul\":2653:2659   */\n      dup4\n        /* \"#utility.yul\":2649:2666   */\n      add\n        /* \"#utility.yul\":2645:2672   */\n      slt\n        /* \"#utility.yul\":2635:2757   */\n      tag_122\n      jumpi\n        /* \"#utility.yul\":2676:2755   */\n      tag_123\n      tag_56\n      jump\t// in\n    tag_123:\n        /* \"#utility.yul\":2635:2757   */\n    tag_122:\n        /* \"#utility.yul\":2793:2799   */\n      dup2\n        /* \"#utility.yul\":2780:2800   */\n      calldataload\n        /* \"#utility.yul\":2818:2897   */\n      tag_124\n        /* \"#utility.yul\":2893:2896   */\n      dup5\n        /* \"#utility.yul\":2885:2891   */\n      dup3\n        /* \"#utility.yul\":2878:2882   */\n      0x20\n        /* \"#utility.yul\":2870:2876   */\n      dup7\n        /* \"#utility.yul\":2866:2883   */\n      add\n        /* \"#utility.yul\":2818:2897   */\n      tag_64\n      jump\t// in\n    tag_124:\n        /* \"#utility.yul\":2809:2897   */\n      swap2\n      pop\n        /* \"#utility.yul\":2625:2903   */\n      pop\n        /* \"#utility.yul\":2563:2903   */\n      swap3\n      swap2\n      pop\n      pop\n      jump\t// out\n        /* \"#utility.yul\":2909:3563   */\n    tag_9:\n        /* \"#utility.yul\":2987:2993   */\n      0x00\n        /* \"#utility.yul\":2995:3001   */\n      dup1\n        /* \"#utility.yul\":3044:3046   */\n      0x40\n        /* \"#utility.yul\":3032:3041   */\n      dup4\n        /* \"#utility.yul\":3023:3030   */\n      dup6\n        /* \"#utility.yul\":3019:3042   */\n      sub\n        /* \"#utility.yul\":3015:3047   */\n      slt\n        /* \"#utility.yul\":3012:3131   */\n      iszero\n      tag_126\n      jumpi\n        /* \"#utility.yul\":3050:3129   */\n      tag_127\n      tag_51\n      jump\t// in\n    tag_127:\n        /* \"#utility.yul\":3012:3131   */\n    tag_126:\n        /* \"#utility.yul\":3170:3171   */\n      0x00\n        /* \"#utility.yul\":3195:3248   */\n      tag_128\n        /* \"#utility.yul\":3240:3247   */\n      dup6\n        /* \"#utility.yul\":3231:3237   */\n      dup3\n        /* \"#utility.yul\":3220:3229   */\n      dup7\n        /* \"#utility.yul\":3216:3238   */\n      add\n        /* \"#utility.yul\":3195:3248   */\n      tag_55\n      jump\t// in\n    tag_128:\n        /* \"#utility.yul\":3185:3248   */\n      swap3\n      pop\n        /* \"#utility.yul\":3141:3258   */\n      pop\n        /* \"#utility.yul\":3325:3327   */\n      0x20\n        /* \"#utility.yul\":3314:3323   */\n      dup4\n        /* \"#utility.yul\":3310:3328   */\n      add\n        /* \"#utility.yul\":3297:3329   */\n      calldataload\n        /* \"#utility.yul\":3356:3374   */\n      0xffffffffffffffff\n        /* \"#utility.yul\":3348:3354   */\n      dup2\n        /* \"#utility.yul\":3345:3375   */\n      gt\n        /* \"#utility.yul\":3342:3459   */\n      iszero\n      tag_129\n      jumpi\n        /* \"#utility.yul\":3378:3457   */\n      tag_130\n      tag_52\n      jump\t// in\n    tag_130:\n        /* \"#utility.yul\":3342:3459   */\n    tag_129:\n        /* \"#utility.yul\":3483:3546   */\n      tag_131\n        /* \"#utility.yul\":3538:3545   */\n      dup6\n        /* \"#utility.yul\":3529:3535   */\n      dup3\n        /* \"#utility.yul\":3518:3527   */\n      dup7\n        /* \"#utility.yul\":3514:3536   */\n      add\n        /* \"#utility.yul\":3483:3546   */\n      tag_65\n      jump\t// in\n    tag_131:\n        /* \"#utility.yul\":3473:3546   */\n      swap2\n      pop\n        /* \"#utility.yul\":3268:3556   */\n      pop\n        /* \"#utility.yul\":2909:3563   */\n      swap3\n      pop\n      swap3\n      swap1\n      pop\n      jump\t// out\n        /* \"#utility.yul\":3569:3898   */\n    tag_13:\n        /* \"#utility.yul\":3628:3634   */\n      0x00\n        /* \"#utility.yul\":3677:3679   */\n      0x20\n        /* \"#utility.yul\":3665:3674   */\n      dup3\n        /* \"#utility.yul\":3656:3663   */\n      dup5\n        /* \"#utility.yul\":3652:3675   */\n      sub\n        /* \"#utility.yul\":3648:3680   */\n      slt\n        /* \"#utility.yul\":3645:3764   */\n      iszero\n      tag_133\n      jumpi\n        /* \"#utility.yul\":3683:3762   */\n      tag_134\n      tag_51\n      jump\t// in\n    tag_134:\n        /* \"#utility.yul\":3645:3764   */\n    tag_133:\n        /* \"#utility.yul\":3803:3804   */\n      0x00\n        /* \"#utility.yul\":3828:3881   */\n      tag_135\n        /* \"#utility.yul\":3873:3880   */\n      dup5\n        /* \"#utility.yul\":3864:3870   */\n      dup3\n        /* \"#utility.yul\":3853:3862   */\n      dup6\n        /* \"#utility.yul\":3849:3871   */\n      add\n        /* \"#utility.yul\":3828:3881   */\n      tag_55\n      jump\t// in\n    tag_135:\n        /* \"#utility.yul\":3818:3881   */\n      swap2\n      pop\n        /* \"#utility.yul\":3774:3891   */\n      pop\n        /* \"#utility.yul\":3569:3898   */\n      swap3\n      swap2\n      pop\n      pop\n      jump\t// out\n        /* \"#utility.yul\":3904:4413   */\n    tag_17:\n        /* \"#utility.yul\":3973:3979   */\n      0x00\n        /* \"#utility.yul\":4022:4024   */\n      0x20\n        /* \"#utility.yul\":4010:4019   */\n      dup3\n        /* \"#utility.yul\":4001:4008   */\n      dup5\n        /* \"#utility.yul\":3997:4020   */\n      sub\n        /* \"#utility.yul\":3993:4025   */\n      slt\n        /* \"#utility.yul\":3990:4109   */\n      iszero\n      tag_137\n      jumpi\n        /* \"#utility.yul\":4028:4107   */\n      tag_138\n      tag_51\n      jump\t// in\n    tag_138:\n        /* \"#utility.yul\":3990:4109   */\n    tag_137:\n        /* \"#utility.yul\":4176:4177   */\n      0x00\n        /* \"#utility.yul\":4165:4174   */\n      dup3\n        /* \"#utility.yul\":4161:4178   */\n      add\n        /* \"#utility.yul\":4148:4179   */\n      calldataload\n        /* \"#utility.yul\":4206:4224   */\n      0xffffffffffffffff\n        /* \"#utility.yul\":4198:4204   */\n      dup2\n        /* \"#utility.yul\":4195:4225   */\n      gt\n        /* \"#utility.yul\":4192:4309   */\n      iszero\n      tag_139\n      jumpi\n        /* \"#utility.yul\":4228:4307   */\n      tag_140\n      tag_52\n      jump\t// in\n    tag_140:\n        /* \"#utility.yul\":4192:4309   */\n    tag_139:\n        /* \"#utility.yul\":4333:4396   */\n      tag_141\n        /* \"#utility.yul\":4388:4395   */\n      dup5\n        /* \"#utility.yul\":4379:4385   */\n      dup3\n        /* \"#utility.yul\":4368:4377   */\n      dup6\n        /* \"#utility.yul\":4364:4386   */\n      add\n        /* \"#utility.yul\":4333:4396   */\n      tag_65\n      jump\t// in\n    tag_141:\n        /* \"#utility.yul\":4323:4396   */\n      swap2\n      pop\n        /* \"#utility.yul\":4119:4406   */\n      pop\n        /* \"#utility.yul\":3904:4413   */\n      swap3\n      swap2\n      pop\n      pop\n      jump\t// out\n        /* \"#utility.yul\":4419:4518   */\n    tag_66:\n        /* \"#utility.yul\":4471:4477   */\n      0x00\n        /* \"#utility.yul\":4505:4510   */\n      dup2\n        /* \"#utility.yul\":4499:4511   */\n      mload\n        /* \"#utility.yul\":4489:4511   */\n      swap1\n      pop\n        /* \"#utility.yul\":4419:4518   */\n      swap2\n      swap1\n      pop\n      jump\t// out\n        /* \"#utility.yul\":4524:4683   */\n    tag_67:\n        /* \"#utility.yul\":4598:4609   */\n      0x00\n        /* \"#utility.yul\":4632:4638   */\n      dup3\n        /* \"#utility.yul\":4627:4630   */\n      dup3\n        /* \"#utility.yul\":4620:4639   */\n      mstore\n        /* \"#utility.yul\":4672:4676   */\n      0x20\n        /* \"#utility.yul\":4667:4670   */\n      dup3\n        /* \"#utility.yul\":4663:4677   */\n      add\n        /* \"#utility.yul\":4648:4677   */\n      swap1\n      pop\n        /* \"#utility.yul\":4524:4683   */\n      swap3\n      swap2\n      pop\n      pop\n      jump\t// out\n        /* \"#utility.yul\":4689:4935   */\n    tag_68:\n        /* \"#utility.yul\":4770:4771   */\n      0x00\n        /* \"#utility.yul\":4780:4893   */\n    tag_145:\n        /* \"#utility.yul\":4794:4800   */\n      dup4\n        /* \"#utility.yul\":4791:4792   */\n      dup2\n        /* \"#utility.yul\":4788:4801   */\n      lt\n        /* \"#utility.yul\":4780:4893   */\n      iszero\n      tag_147\n      jumpi\n        /* \"#utility.yul\":4879:4880   */\n      dup1\n        /* \"#utility.yul\":4874:4877   */\n      dup3\n        /* \"#utility.yul\":4870:4881   */\n      add\n        /* \"#utility.yul\":4864:4882   */\n      mload\n        /* \"#utility.yul\":4860:4861   */\n      dup2\n        /* \"#utility.yul\":4855:4858   */\n      dup5\n        /* \"#utility.yul\":4851:4862   */\n      add\n        /* \"#utility.yul\":4844:4883   */\n      mstore\n        /* \"#utility.yul\":4816:4818   */\n      0x20\n        /* \"#utility.yul\":4813:4814   */\n      dup2\n        /* \"#utility.yul\":4809:4819   */\n      add\n        /* \"#utility.yul\":4804:4819   */\n      swap1\n      pop\n        /* \"#utility.yul\":4780:4893   */\n      jump(tag_145)\n    tag_147:\n        /* \"#utility.yul\":4927:4928   */\n      0x00\n        /* \"#utility.yul\":4918:4924   */\n      dup5\n        /* \"#utility.yul\":4913:4916   */\n      dup5\n        /* \"#utility.yul\":4909:4925   */\n      add\n        /* \"#utility.yul\":4902:4929   */\n      mstore\n        /* \"#utility.yul\":4751:4935   */\n      pop\n        /* \"#utility.yul\":4689:4935   */\n      pop\n      pop\n      pop\n      jump\t// out\n        /* \"#utility.yul\":4941:5298   */\n    tag_69:\n        /* \"#utility.yul\":5019:5022   */\n      0x00\n        /* \"#utility.yul\":5047:5086   */\n      tag_149\n        /* \"#utility.yul\":5080:5085   */\n      dup3\n        /* \"#utility.yul\":5047:5086   */\n      tag_66\n      jump\t// in\n    tag_149:\n        /* \"#utility.yul\":5102:5163   */\n      tag_150\n        /* \"#utility.yul\":5156:5162   */\n      dup2\n        /* \"#utility.yul\":5151:5154   */\n      dup6\n        /* \"#utility.yul\":5102:5163   */\n      tag_67\n      jump\t// in\n    tag_150:\n        /* \"#utility.yul\":5095:5163   */\n      swap4\n      pop\n        /* \"#utility.yul\":5172:5237   */\n      tag_151\n        /* \"#utility.yul\":5230:5236   */\n      dup2\n        /* \"#utility.yul\":5225:5228   */\n      dup6\n        /* \"#utility.yul\":5218:5222   */\n      0x20\n        /* \"#utility.yul\":5211:5216   */\n      dup7\n        /* \"#utility.yul\":5207:5223   */\n      add\n        /* \"#utility.yul\":5172:5237   */\n      tag_68\n      jump\t// in\n    tag_151:\n        /* \"#utility.yul\":5262:5291   */\n      tag_152\n        /* \"#utility.yul\":5284:5290   */\n      dup2\n        /* \"#utility.yul\":5262:5291   */\n      tag_58\n      jump\t// in\n    tag_152:\n        /* \"#utility.yul\":5257:5260   */\n      dup5\n        /* \"#utility.yul\":5253:5292   */\n      add\n        /* \"#utility.yul\":5246:5292   */\n      swap2\n      pop\n        /* \"#utility.yul\":5023:5298   */\n      pop\n        /* \"#utility.yul\":4941:5298   */\n      swap3\n      swap2\n      pop\n      pop\n      jump\t// out\n        /* \"#utility.yul\":5304:5394   */\n    tag_70:\n        /* \"#utility.yul\":5338:5345   */\n      0x00\n        /* \"#utility.yul\":5381:5386   */\n      dup2\n        /* \"#utility.yul\":5374:5387   */\n      iszero\n        /* \"#utility.yul\":5367:5388   */\n      iszero\n        /* \"#utility.yul\":5356:5388   */\n      swap1\n      pop\n        /* \"#utility.yul\":5304:5394   */\n      swap2\n      swap1\n      pop\n      jump\t// out\n        /* \"#utility.yul\":5400:5499   */\n    tag_71:\n        /* \"#utility.yul\":5471:5492   */\n      tag_155\n        /* \"#utility.yul\":5486:5491   */\n      dup2\n        /* \"#utility.yul\":5471:5492   */\n      tag_70\n      jump\t// in\n    tag_155:\n        /* \"#utility.yul\":5466:5469   */\n      dup3\n        /* \"#utility.yul\":5459:5493   */\n      mstore\n        /* \"#utility.yul\":5400:5499   */\n      pop\n      pop\n      jump\t// out\n        /* \"#utility.yul\":5541:6140   */\n    tag_72:\n        /* \"#utility.yul\":5650:5653   */\n      0x00\n        /* \"#utility.yul\":5686:5690   */\n      0x40\n        /* \"#utility.yul\":5681:5684   */\n      dup4\n        /* \"#utility.yul\":5677:5691   */\n      add\n        /* \"#utility.yul\":5780:5784   */\n      0x00\n        /* \"#utility.yul\":5773:5778   */\n      dup4\n        /* \"#utility.yul\":5769:5785   */\n      add\n        /* \"#utility.yul\":5763:5786   */\n      mload\n        /* \"#utility.yul\":5833:5836   */\n      dup5\n        /* \"#utility.yul\":5827:5831   */\n      dup3\n        /* \"#utility.yul\":5823:5837   */\n      sub\n        /* \"#utility.yul\":5816:5820   */\n      0x00\n        /* \"#utility.yul\":5811:5814   */\n      dup7\n        /* \"#utility.yul\":5807:5821   */\n      add\n        /* \"#utility.yul\":5800:5838   */\n      mstore\n        /* \"#utility.yul\":5859:5932   */\n      tag_157\n        /* \"#utility.yul\":5927:5931   */\n      dup3\n        /* \"#utility.yul\":5913:5925   */\n      dup3\n        /* \"#utility.yul\":5859:5932   */\n      tag_69\n      jump\t// in\n    tag_157:\n        /* \"#utility.yul\":5851:5932   */\n      swap2\n      pop\n        /* \"#utility.yul\":5701:5943   */\n      pop\n        /* \"#utility.yul\":6027:6031   */\n      0x20\n        /* \"#utility.yul\":6020:6025   */\n      dup4\n        /* \"#utility.yul\":6016:6032   */\n      add\n        /* \"#utility.yul\":6010:6033   */\n      mload\n        /* \"#utility.yul\":6046:6103   */\n      tag_158\n        /* \"#utility.yul\":6097:6101   */\n      0x20\n        /* \"#utility.yul\":6092:6095   */\n      dup7\n        /* \"#utility.yul\":6088:6102   */\n      add\n        /* \"#utility.yul\":6074:6086   */\n      dup3\n        /* \"#utility.yul\":6046:6103   */\n      tag_71\n      jump\t// in\n    tag_158:\n        /* \"#utility.yul\":5953:6113   */\n      pop\n        /* \"#utility.yul\":6130:6134   */\n      dup1\n        /* \"#utility.yul\":6123:6134   */\n      swap2\n      pop\n        /* \"#utility.yul\":5655:6140   */\n      pop\n        /* \"#utility.yul\":5541:6140   */\n      swap3\n      swap2\n      pop\n      pop\n      jump\t// out\n        /* \"#utility.yul\":6146:6499   */\n    tag_23:\n        /* \"#utility.yul\":6279:6283   */\n      0x00\n        /* \"#utility.yul\":6317:6319   */\n      0x20\n        /* \"#utility.yul\":6306:6315   */\n      dup3\n        /* \"#utility.yul\":6302:6320   */\n      add\n        /* \"#utility.yul\":6294:6320   */\n      swap1\n      pop\n        /* \"#utility.yul\":6366:6375   */\n      dup2\n        /* \"#utility.yul\":6360:6364   */\n      dup2\n        /* \"#utility.yul\":6356:6376   */\n      sub\n        /* \"#utility.yul\":6352:6353   */\n      0x00\n        /* \"#utility.yul\":6341:6350   */\n      dup4\n        /* \"#utility.yul\":6337:6354   */\n      add\n        /* \"#utility.yul\":6330:6377   */\n      mstore\n        /* \"#utility.yul\":6394:6492   */\n      tag_160\n        /* \"#utility.yul\":6487:6491   */\n      dup2\n        /* \"#utility.yul\":6478:6484   */\n      dup5\n        /* \"#utility.yul\":6394:6492   */\n      tag_72\n      jump\t// in\n    tag_160:\n        /* \"#utility.yul\":6386:6492   */\n      swap1\n      pop\n        /* \"#utility.yul\":6146:6499   */\n      swap3\n      swap2\n      pop\n      pop\n      jump\t// out\n        /* \"#utility.yul\":6505:6685   */\n    tag_27:\n        /* \"#utility.yul\":6553:6630   */\n      0x4e487b7100000000000000000000000000000000000000000000000000000000\n        /* \"#utility.yul\":6550:6551   */\n      0x00\n        /* \"#utility.yul\":6543:6631   */\n      mstore\n        /* \"#utility.yul\":6650:6654   */\n      0x32\n        /* \"#utility.yul\":6647:6648   */\n      0x04\n        /* \"#utility.yul\":6640:6655   */\n      mstore\n        /* \"#utility.yul\":6674:6678   */\n      0x24\n        /* \"#utility.yul\":6671:6672   */\n      0x00\n        /* \"#utility.yul\":6664:6679   */\n      revert\n        /* \"#utility.yul\":6691:6871   */\n    tag_73:\n        /* \"#utility.yul\":6739:6816   */\n      0x4e487b7100000000000000000000000000000000000000000000000000000000\n        /* \"#utility.yul\":6736:6737   */\n      0x00\n        /* \"#utility.yul\":6729:6817   */\n      mstore\n        /* \"#utility.yul\":6836:6840   */\n      0x22\n        /* \"#utility.yul\":6833:6834   */\n      0x04\n        /* \"#utility.yul\":6826:6841   */\n      mstore\n        /* \"#utility.yul\":6860:6864   */\n      0x24\n        /* \"#utility.yul\":6857:6858   */\n      0x00\n        /* \"#utility.yul\":6850:6865   */\n      revert\n        /* \"#utility.yul\":6877:7197   */\n    tag_45:\n        /* \"#utility.yul\":6921:6927   */\n      0x00\n        /* \"#utility.yul\":6958:6959   */\n      0x02\n        /* \"#utility.yul\":6952:6956   */\n      dup3\n        /* \"#utility.yul\":6948:6960   */\n      div\n        /* \"#utility.yul\":6938:6960   */\n      swap1\n      pop\n        /* \"#utility.yul\":7005:7006   */\n      0x01\n        /* \"#utility.yul\":6999:7003   */\n      dup3\n        /* \"#utility.yul\":6995:7007   */\n      and\n        /* \"#utility.yul\":7026:7044   */\n      dup1\n        /* \"#utility.yul\":7016:7097   */\n      tag_164\n      jumpi\n        /* \"#utility.yul\":7082:7086   */\n      0x7f\n        /* \"#utility.yul\":7074:7080   */\n      dup3\n        /* \"#utility.yul\":7070:7087   */\n      and\n        /* \"#utility.yul\":7060:7087   */\n      swap2\n      pop\n        /* \"#utility.yul\":7016:7097   */\n    tag_164:\n        /* \"#utility.yul\":7144:7146   */\n      0x20\n        /* \"#utility.yul\":7136:7142   */\n      dup3\n        /* \"#utility.yul\":7133:7147   */\n      lt\n        /* \"#utility.yul\":7113:7131   */\n      dup2\n        /* \"#utility.yul\":7110:7148   */\n      sub\n        /* \"#utility.yul\":7107:7191   */\n      tag_165\n      jumpi\n        /* \"#utility.yul\":7163:7181   */\n      tag_166\n      tag_73\n      jump\t// in\n    tag_166:\n        /* \"#utility.yul\":7107:7191   */\n    tag_165:\n        /* \"#utility.yul\":6928:7197   */\n      pop\n        /* \"#utility.yul\":6877:7197   */\n      swap2\n      swap1\n      pop\n      jump\t// out\n        /* \"#utility.yul\":7203:7344   */\n    tag_74:\n        /* \"#utility.yul\":7252:7256   */\n      0x00\n        /* \"#utility.yul\":7275:7278   */\n      dup2\n        /* \"#utility.yul\":7267:7278   */\n      swap1\n      pop\n        /* \"#utility.yul\":7298:7301   */\n      dup2\n        /* \"#utility.yul\":7295:7296   */\n      0x00\n        /* \"#utility.yul\":7288:7302   */\n      mstore\n        /* \"#utility.yul\":7332:7336   */\n      0x20\n        /* \"#utility.yul\":7329:7330   */\n      0x00\n        /* \"#utility.yul\":7319:7337   */\n      keccak256\n        /* \"#utility.yul\":7311:7337   */\n      swap1\n      pop\n        /* \"#utility.yul\":7203:7344   */\n      swap2\n      swap1\n      pop\n      jump\t// out\n        /* \"#utility.yul\":7350:7443   */\n    tag_75:\n        /* \"#utility.yul\":7387:7393   */\n      0x00\n        /* \"#utility.yul\":7434:7436   */\n      0x20\n        /* \"#utility.yul\":7429:7431   */\n      0x1f\n        /* \"#utility.yul\":7422:7427   */\n      dup4\n        /* \"#utility.yul\":7418:7432   */\n      add\n        /* \"#utility.yul\":7414:7437   */\n      div\n        /* \"#utility.yul\":7404:7437   */\n      swap1\n      pop\n        /* \"#utility.yul\":7350:7443   */\n      swap2\n      swap1\n      pop\n      jump\t// out\n        /* \"#utility.yul\":7449:7556   */\n    tag_76:\n        /* \"#utility.yul\":7493:7501   */\n      0x00\n        /* \"#utility.yul\":7543:7548   */\n      dup3\n        /* \"#utility.yul\":7537:7541   */\n      dup3\n        /* \"#utility.yul\":7533:7549   */\n      shl\n        /* \"#utility.yul\":7512:7549   */\n      swap1\n      pop\n        /* \"#utility.yul\":7449:7556   */\n      swap3\n      swap2\n      pop\n      pop\n      jump\t// out\n        /* \"#utility.yul\":7562:7955   */\n    tag_77:\n        /* \"#utility.yul\":7631:7637   */\n      0x00\n        /* \"#utility.yul\":7681:7682   */\n      0x08\n        /* \"#utility.yul\":7669:7679   */\n      dup4\n        /* \"#utility.yul\":7665:7683   */\n      mul\n        /* \"#utility.yul\":7704:7801   */\n      tag_171\n        /* \"#utility.yul\":7734:7800   */\n      0xffffffffffffffffffffffffffffffffffffffffffffffffffffffffffffffff\n        /* \"#utility.yul\":7723:7732   */\n      dup3\n        /* \"#utility.yul\":7704:7801   */\n      tag_76\n      jump\t// in\n    tag_171:\n        /* \"#utility.yul\":7822:7861   */\n      tag_172\n        /* \"#utility.yul\":7852:7860   */\n      dup7\n        /* \"#utility.yul\":7841:7850   */\n      dup4\n        /* \"#utility.yul\":7822:7861   */\n      tag_76\n      jump\t// in\n    tag_172:\n        /* \"#utility.yul\":7810:7861   */\n      swap6\n      pop\n        /* \"#utility.yul\":7894:7898   */\n      dup1\n        /* \"#utility.yul\":7890:7899   */\n      not\n        /* \"#utility.yul\":7883:7888   */\n      dup5\n        /* \"#utility.yul\":7879:7900   */\n      and\n        /* \"#utility.yul\":7870:7900   */\n      swap4\n      pop\n        /* \"#utility.yul\":7943:7947   */\n      dup1\n        /* \"#utility.yul\":7933:7941   */\n      dup7\n        /* \"#utility.yul\":7929:7948   */\n      and\n        /* \"#utility.yul\":7922:7927   */\n      dup5\n        /* \"#utility.yul\":7919:7949   */\n      or\n        /* \"#utility.yul\":7909:7949   */\n      swap3\n      pop\n        /* \"#utility.yul\":7638:7955   */\n      pop\n      pop\n        /* \"#utility.yul\":7562:7955   */\n      swap4\n      swap3\n      pop\n      pop\n      pop\n      jump\t// out\n        /* \"#utility.yul\":7961:8021   */\n    tag_78:\n        /* \"#utility.yul\":7989:7992   */\n      0x00\n        /* \"#utility.yul\":8010:8015   */\n      dup2\n        /* \"#utility.yul\":8003:8015   */\n      swap1\n      pop\n        /* \"#utility.yul\":7961:8021   */\n      swap2\n      swap1\n      pop\n      jump\t// out\n        /* \"#utility.yul\":8027:8169   */\n    tag_79:\n        /* \"#utility.yul\":8077:8086   */\n      0x00\n        /* \"#utility.yul\":8110:8163   */\n      tag_175\n        /* \"#utility.yul\":8128:8162   */\n      tag_176\n        /* \"#utility.yul\":8137:8161   */\n      tag_177\n        /* \"#utility.yul\":8155:8160   */\n      dup5\n        /* \"#utility.yul\":8137:8161   */\n      tag_53\n      jump\t// in\n    tag_177:\n        /* \"#utility.yul\":8128:8162   */\n      tag_78\n      jump\t// in\n    tag_176:\n        /* \"#utility.yul\":8110:8163   */\n      tag_53\n      jump\t// in\n    tag_175:\n        /* \"#utility.yul\":8097:8163   */\n      swap1\n      pop\n        /* \"#utility.yul\":8027:8169   */\n      swap2\n      swap1\n      pop\n      jump\t// out\n        /* \"#utility.yul\":8175:8250   */\n    tag_80:\n        /* \"#utility.yul\":8218:8221   */\n      0x00\n        /* \"#utility.yul\":8239:8244   */\n      dup2\n        /* \"#utility.yul\":8232:8244   */\n      swap1\n      pop\n        /* \"#utility.yul\":8175:8250   */\n      swap2\n      swap1\n      pop\n      jump\t// out\n        /* \"#utility.yul\":8256:8525   */\n    tag_81:\n        /* \"#utility.yul\":8366:8405   */\n      tag_180\n        /* \"#utility.yul\":8397:8404   */\n      dup4\n        /* \"#utility.yul\":8366:8405   */\n      tag_79\n      jump\t// in\n    tag_180:\n        /* \"#utility.yul\":8427:8518   */\n      tag_181\n        /* \"#utility.yul\":8476:8517   */\n      tag_182\n        /* \"#utility.yul\":8500:8516   */\n      dup3\n        /* \"#utility.yul\":8476:8517   */\n      tag_80\n      jump\t// in\n    tag_182:\n        /* \"#utility.yul\":8468:8474   */\n      dup5\n        /* \"#utility.yul\":8461:8465   */\n      dup5\n        /* \"#utility.yul\":8455:8466   */\n      sload\n        /* \"#utility.yul\":8427:8518   */\n      tag_77\n      jump\t// in\n    tag_181:\n        /* \"#utility.yul\":8421:8425   */\n      dup3\n        /* \"#utility.yul\":8414:8519   */\n      sstore\n        /* \"#utility.yul\":8332:8525   */\n      pop\n        /* \"#utility.yul\":8256:8525   */\n      pop\n      pop\n      pop\n      jump\t// out\n        /* \"#utility.yul\":8531:8604   */\n    tag_82:\n        /* \"#utility.yul\":8576:8579   */\n      0x00\n        /* \"#utility.yul\":8531:8604   */\n      swap1\n      jump\t// out\n        /* \"#utility.yul\":8610:8799   */\n    tag_83:\n        /* \"#utility.yul\":8687:8719   */\n      tag_185\n      tag_82\n      jump\t// in\n    tag_185:\n        /* \"#utility.yul\":8728:8793   */\n      tag_186\n        /* \"#utility.yul\":8786:8792   */\n      dup2\n        /* \"#utility.yul\":8778:8784   */\n      dup5\n        /* \"#utility.yul\":8772:8776   */\n      dup5\n        /* \"#utility.yul\":8728:8793   */\n      tag_81\n      jump\t// in\n    tag_186:\n        /* \"#utility.yul\":8663:8799   */\n      pop\n        /* \"#utility.yul\":8610:8799   */\n      pop\n      pop\n      jump\t// out\n        /* \"#utility.yul\":8805:8991   */\n    tag_84:\n        /* \"#utility.yul\":8865:8985   */\n    tag_188:\n        /* \"#utility.yul\":8882:8885   */\n      dup2\n        /* \"#utility.yul\":8875:8880   */\n      dup2\n        /* \"#utility.yul\":8872:8886   */\n      lt\n        /* \"#utility.yul\":8865:8985   */\n      iszero\n      tag_190\n      jumpi\n        /* \"#utility.yul\":8936:8975   */\n      tag_191\n        /* \"#utility.yul\":8973:8974   */\n      0x00\n        /* \"#utility.yul\":8966:8971   */\n      dup3\n        /* \"#utility.yul\":8936:8975   */\n      tag_83\n      jump\t// in\n    tag_191:\n        /* \"#utility.yul\":8909:8910   */\n      0x01\n        /* \"#utility.yul\":8902:8907   */\n      dup2\n        /* \"#utility.yul\":8898:8911   */\n      add\n        /* \"#utility.yul\":8889:8911   */\n      swap1\n      pop\n        /* \"#utility.yul\":8865:8985   */\n      jump(tag_188)\n    tag_190:\n        /* \"#utility.yul\":8805:8991   */\n      pop\n      pop\n      jump\t// out\n        /* \"#utility.yul\":8997:9540   */\n    tag_85:\n        /* \"#utility.yul\":9098:9100   */\n      0x1f\n        /* \"#utility.yul\":9093:9096   */\n      dup3\n        /* \"#utility.yul\":9090:9101   */\n      gt\n        /* \"#utility.yul\":9087:9533   */\n      iszero\n      tag_193\n      jumpi\n        /* \"#utility.yul\":9132:9170   */\n      tag_194\n        /* \"#utility.yul\":9164:9169   */\n      dup2\n        /* \"#utility.yul\":9132:9170   */\n      tag_74\n      jump\t// in\n    tag_194:\n        /* \"#utility.yul\":9216:9245   */\n      tag_195\n        /* \"#utility.yul\":9234:9244   */\n      dup5\n        /* \"#utility.yul\":9216:9245   */\n      tag_75\n      jump\t// in\n    tag_195:\n        /* \"#utility.yul\":9206:9214   */\n      dup2\n        /* \"#utility.yul\":9202:9246   */\n      add\n        /* \"#utility.yul\":9399:9401   */\n      0x20\n        /* \"#utility.yul\":9387:9397   */\n      dup6\n        /* \"#utility.yul\":9384:9402   */\n      lt\n        /* \"#utility.yul\":9381:9430   */\n      iszero\n      tag_196\n      jumpi\n        /* \"#utility.yul\":9420:9428   */\n      dup2\n        /* \"#utility.yul\":9405:9428   */\n      swap1\n      pop\n        /* \"#utility.yul\":9381:9430   */\n    tag_196:\n        /* \"#utility.yul\":9443:9523   */\n      tag_197\n        /* \"#utility.yul\":9499:9521   */\n      tag_198\n        /* \"#utility.yul\":9517:9520   */\n      dup6\n        /* \"#utility.yul\":9499:9521   */\n      tag_75\n      jump\t// in\n    tag_198:\n        /* \"#utility.yul\":9489:9497   */\n      dup4\n        /* \"#utility.yul\":9485:9522   */\n      add\n        /* \"#utility.yul\":9472:9483   */\n      dup3\n        /* \"#utility.yul\":9443:9523   */\n      tag_84\n      jump\t// in\n    tag_197:\n        /* \"#utility.yul\":9102:9533   */\n      pop\n      pop\n        /* \"#utility.yul\":9087:9533   */\n    tag_193:\n        /* \"#utility.yul\":8997:9540   */\n      pop\n      pop\n      pop\n      jump\t// out\n        /* \"#utility.yul\":9546:9663   */\n    tag_86:\n        /* \"#utility.yul\":9600:9608   */\n      0x00\n        /* \"#utility.yul\":9650:9655   */\n      dup3\n        /* \"#utility.yul\":9644:9648   */\n      dup3\n        /* \"#utility.yul\":9640:9656   */\n      shr\n        /* \"#utility.yul\":9619:9656   */\n      swap1\n      pop\n        /* \"#utility.yul\":9546:9663   */\n      swap3\n      swap2\n      pop\n      pop\n      jump\t// out\n        /* \"#utility.yul\":9669:9838   */\n    tag_87:\n        /* \"#utility.yul\":9713:9719   */\n      0x00\n        /* \"#utility.yul\":9746:9797   */\n      tag_201\n        /* \"#utility.yul\":9794:9795   */\n      0x00\n        /* \"#utility.yul\":9790:9796   */\n      not\n        /* \"#utility.yul\":9782:9787   */\n      dup5\n        /* \"#utility.yul\":9779:9780   */\n      0x08\n        /* \"#utility.yul\":9775:9788   */\n      mul\n        /* \"#utility.yul\":9746:9797   */\n      tag_86\n      jump\t// in\n    tag_201:\n        /* \"#utility.yul\":9742:9798   */\n      not\n        /* \"#utility.yul\":9827:9831   */\n      dup1\n        /* \"#utility.yul\":9821:9825   */\n      dup4\n        /* \"#utility.yul\":9817:9832   */\n      and\n        /* \"#utility.yul\":9807:9832   */\n      swap2\n      pop\n        /* \"#utility.yul\":9720:9838   */\n      pop\n        /* \"#utility.yul\":9669:9838   */\n      swap3\n      swap2\n      pop\n      pop\n      jump\t// out\n        /* \"#utility.yul\":9843:10138   */\n    tag_88:\n        /* \"#utility.yul\":9919:9923   */\n      0x00\n        /* \"#utility.yul\":10065:10094   */\n      tag_203\n        /* \"#utility.yul\":10090:10093   */\n      dup4\n        /* \"#utility.yul\":10084:10088   */\n      dup4\n        /* \"#utility.yul\":10065:10094   */\n      tag_87\n      jump\t// in\n    tag_203:\n        /* \"#utility.yul\":10057:10094   */\n      swap2\n      pop\n        /* \"#utility.yul\":10127:10130   */\n      dup3\n        /* \"#utility.yul\":10124:10125   */\n      0x02\n        /* \"#utility.yul\":10120:10131   */\n      mul\n        /* \"#utility.yul\":10114:10118   */\n      dup3\n        /* \"#utility.yul\":10111:10132   */\n      or\n        /* \"#utility.yul\":10103:10132   */\n      swap1\n      pop\n        /* \"#utility.yul\":9843:10138   */\n      swap3\n      swap2\n      pop\n      pop\n      jump\t// out\n        /* \"#utility.yul\":10143:11538   */\n    tag_30:\n        /* \"#utility.yul\":10260:10297   */\n      tag_205\n        /* \"#utility.yul\":10293:10296   */\n      dup3\n        /* \"#utility.yul\":10260:10297   */\n      tag_66\n      jump\t// in\n    tag_205:\n        /* \"#utility.yul\":10362:10380   */\n      0xffffffffffffffff\n        /* \"#utility.yul\":10354:10360   */\n      dup2\n        /* \"#utility.yul\":10351:10381   */\n      gt\n        /* \"#utility.yul\":10348:10404   */\n      iszero\n      tag_206\n      jumpi\n        /* \"#utility.yul\":10384:10402   */\n      tag_207\n      tag_59\n      jump\t// in\n    tag_207:\n        /* \"#utility.yul\":10348:10404   */\n    tag_206:\n        /* \"#utility.yul\":10428:10466   */\n      tag_208\n        /* \"#utility.yul\":10460:10464   */\n      dup3\n        /* \"#utility.yul\":10454:10465   */\n      sload\n        /* \"#utility.yul\":10428:10466   */\n      tag_45\n      jump\t// in\n    tag_208:\n        /* \"#utility.yul\":10513:10580   */\n      tag_209\n        /* \"#utility.yul\":10573:10579   */\n      dup3\n        /* \"#utility.yul\":10565:10571   */\n      dup3\n        /* \"#utility.yul\":10559:10563   */\n      dup6\n        /* \"#utility.yul\":10513:10580   */\n      tag_85\n      jump\t// in\n    tag_209:\n        /* \"#utility.yul\":10607:10608   */\n      0x00\n        /* \"#utility.yul\":10631:10635   */\n      0x20\n        /* \"#utility.yul\":10618:10635   */\n      swap1\n      pop\n        /* \"#utility.yul\":10663:10665   */\n      0x1f\n        /* \"#utility.yul\":10655:10661   */\n      dup4\n        /* \"#utility.yul\":10652:10666   */\n      gt\n        /* \"#utility.yul\":10680:10681   */\n      0x01\n        /* \"#utility.yul\":10675:11293   */\n      dup2\n      eq\n      tag_211\n      jumpi\n        /* \"#utility.yul\":11337:11338   */\n      0x00\n        /* \"#utility.yul\":11354:11360   */\n      dup5\n        /* \"#utility.yul\":11351:11428   */\n      iszero\n      tag_212\n      jumpi\n        /* \"#utility.yul\":11403:11412   */\n      dup3\n        /* \"#utility.yul\":11398:11401   */\n      dup8\n        /* \"#utility.yul\":11394:11413   */\n      add\n        /* \"#utility.yul\":11388:11414   */\n      mload\n        /* \"#utility.yul\":11379:11414   */\n      swap1\n      pop\n        /* \"#utility.yul\":11351:11428   */\n    tag_212:\n        /* \"#utility.yul\":11454:11521   */\n      tag_213\n        /* \"#utility.yul\":11514:11520   */\n      dup6\n        /* \"#utility.yul\":11507:11512   */\n      dup3\n        /* \"#utility.yul\":11454:11521   */\n      tag_88\n      jump\t// in\n    tag_213:\n        /* \"#utility.yul\":11448:11452   */\n      dup7\n        /* \"#utility.yul\":11441:11522   */\n      sstore\n        /* \"#utility.yul\":11310:11532   */\n      pop\n        /* \"#utility.yul\":10645:11532   */\n      jump(tag_210)\n        /* \"#utility.yul\":10675:11293   */\n    tag_211:\n        /* \"#utility.yul\":10727:10731   */\n      0x1f\n        /* \"#utility.yul\":10723:10732   */\n      not\n        /* \"#utility.yul\":10715:10721   */\n      dup5\n        /* \"#utility.yul\":10711:10733   */\n      and\n        /* \"#utility.yul\":10761:10798   */\n      tag_214\n        /* \"#utility.yul\":10793:10797   */\n      dup7\n        /* \"#utility.yul\":10761:10798   */\n      tag_74\n      jump\t// in\n    tag_214:\n        /* \"#utility.yul\":10820:10821   */\n      0x00\n        /* \"#utility.yul\":10834:11042   */\n    tag_215:\n        /* \"#utility.yul\":10848:10855   */\n      dup3\n        /* \"#utility.yul\":10845:10846   */\n      dup2\n        /* \"#utility.yul\":10842:10856   */\n      lt\n        /* \"#utility.yul\":10834:11042   */\n      iszero\n      tag_217\n      jumpi\n        /* \"#utility.yul\":10927:10936   */\n      dup5\n        /* \"#utility.yul\":10922:10925   */\n      dup10\n        /* \"#utility.yul\":10918:10937   */\n      add\n        /* \"#utility.yul\":10912:10938   */\n      mload\n        /* \"#utility.yul\":10904:10910   */\n      dup3\n        /* \"#utility.yul\":10897:10939   */\n      sstore\n        /* \"#utility.yul\":10978:10979   */\n      0x01\n        /* \"#utility.yul\":10970:10976   */\n      dup3\n        /* \"#utility.yul\":10966:10980   */\n      add\n        /* \"#utility.yul\":10956:10980   */\n      swap2\n      pop\n        /* \"#utility.yul\":11025:11027   */\n      0x20\n        /* \"#utility.yul\":11014:11023   */\n      dup6\n        /* \"#utility.yul\":11010:11028   */\n      add\n        /* \"#utility.yul\":10997:11028   */\n      swap5\n      pop\n        /* \"#utility.yul\":10871:10875   */\n      0x20\n        /* \"#utility.yul\":10868:10869   */\n      dup2\n        /* \"#utility.yul\":10864:10876   */\n      add\n        /* \"#utility.yul\":10859:10876   */\n      swap1\n      pop\n        /* \"#utility.yul\":10834:11042   */\n      jump(tag_215)\n    tag_217:\n        /* \"#utility.yul\":11070:11076   */\n      dup7\n        /* \"#utility.yul\":11061:11068   */\n      dup4\n        /* \"#utility.yul\":11058:11077   */\n      lt\n        /* \"#utility.yul\":11055:11234   */\n      iszero\n      tag_218\n      jumpi\n        /* \"#utility.yul\":11128:11137   */\n      dup5\n        /* \"#utility.yul\":11123:11126   */\n      dup10\n        /* \"#utility.yul\":11119:11138   */\n      add\n        /* \"#utility.yul\":11113:11139   */\n      mload\n        /* \"#utility.yul\":11171:11219   */\n      tag_219\n        /* \"#utility.yul\":11213:11217   */\n      0x1f\n        /* \"#utility.yul\":11205:11211   */\n      dup10\n        /* \"#utility.yul\":11201:11218   */\n      and\n        /* \"#utility.yul\":11190:11199   */\n      dup3\n        /* \"#utility.yul\":11171:11219   */\n      tag_87\n      jump\t// in\n    tag_219:\n        /* \"#utility.yul\":11163:11169   */\n      dup4\n        /* \"#utility.yul\":11156:11220   */\n      sstore\n        /* \"#utility.yul\":11078:11234   */\n      pop\n        /* \"#utility.yul\":11055:11234   */\n    tag_218:\n        /* \"#utility.yul\":11280:11281   */\n      0x01\n        /* \"#utility.yul\":11276:11277   */\n      0x02\n        /* \"#utility.yul\":11268:11274   */\n      dup9\n        /* \"#utility.yul\":11264:11278   */\n      mul\n        /* \"#utility.yul\":11260:11282   */\n      add\n        /* \"#utility.yul\":11254:11258   */\n      dup9\n        /* \"#utility.yul\":11247:11283   */\n      sstore\n        /* \"#utility.yul\":10682:11293   */\n      pop\n      pop\n      pop\n        /* \"#utility.yul\":10645:11532   */\n    tag_210:\n      pop\n        /* \"#utility.yul\":10235:11538   */\n      pop\n      pop\n      pop\n        /* \"#utility.yul\":10143:11538   */\n      pop\n      pop\n      jump\t// out\n\n    auxdata: 0xa264697066735822122093334cf92d9e11405adc9e5b2f42420ff733a7cf53f95b3b15d1966020c8878d64736f6c63430008140033\n}\n",
				"bytecode": {
					"linkReferences": {},
					"object": "608060405234801561000f575f80fd5b506109358061001d5f395ff3fe608060405234801561000f575f80fd5b506004361061004a575f3560e01c806314dee4b31461004e5780631ec039d51461006a5780632ebc0504146100865780639507d39a146100a2575b5f80fd5b6100686004803603810190610063919061044f565b6100d2565b005b610084600480360381019061007f91906104a9565b61010a565b005b6100a0600480360381019061009b91906104d4565b61015c565b005b6100bc60048036038101906100b791906104a9565b6101d2565b6040516100c991906105e9565b60405180910390f35b5f8083815481106100e6576100e5610609565b5b905f5260205f209060020201905081815f0190816101049190610830565b50505050565b5f80828154811061011e5761011d610609565b5b905f5260205f2090600202019050806001015f9054906101000a900460ff1615816001015f6101000a81548160ff0219169083151502179055505050565b5f60405180604001604052808381526020015f1515815250908060018154018082558091505060019003905f5260205f2090600202015f909190919091505f820151815f0190816101ad9190610830565b506020820151816001015f6101000a81548160ff021916908315150217905550505050565b6101da6102b4565b5f82815481106101ed576101ec610609565b5b905f5260205f2090600202016040518060400160405290815f8201805461021390610663565b80601f016020809104026020016040519081016040528092919081815260200182805461023f90610663565b801561028a5780601f106102615761010080835404028352916020019161028a565b820191905f5260205f20905b81548152906001019060200180831161026d57829003601f168201915b50505050508152602001600182015f9054906101000a900460ff1615151515815250509050919050565b6040518060400160405280606081526020015f151581525090565b5f604051905090565b5f80fd5b5f80fd5b5f819050919050565b6102f2816102e0565b81146102fc575f80fd5b50565b5f8135905061030d816102e9565b92915050565b5f80fd5b5f80fd5b5f601f19601f8301169050919050565b7f4e487b71000000000000000000000000000000000000000000000000000000005f52604160045260245ffd5b6103618261031b565b810181811067ffffffffffffffff821117156103805761037f61032b565b5b80604052505050565b5f6103926102cf565b905061039e8282610358565b919050565b5f67ffffffffffffffff8211156103bd576103bc61032b565b5b6103c68261031b565b9050602081019050919050565b828183375f83830152505050565b5f6103f36103ee846103a3565b610389565b90508281526020810184848401111561040f5761040e610317565b5b61041a8482856103d3565b509392505050565b5f82601f83011261043657610435610313565b5b81356104468482602086016103e1565b91505092915050565b5f8060408385031215610465576104646102d8565b5b5f610472858286016102ff565b925050602083013567ffffffffffffffff811115610493576104926102dc565b5b61049f85828601610422565b9150509250929050565b5f602082840312156104be576104bd6102d8565b5b5f6104cb848285016102ff565b91505092915050565b5f602082840312156104e9576104e86102d8565b5b5f82013567ffffffffffffffff811115610506576105056102dc565b5b61051284828501610422565b91505092915050565b5f81519050919050565b5f82825260208201905092915050565b5f5b83811015610552578082015181840152602081019050610537565b5f8484015250505050565b5f6105678261051b565b6105718185610525565b9350610581818560208601610535565b61058a8161031b565b840191505092915050565b5f8115159050919050565b6105a981610595565b82525050565b5f604083015f8301518482035f8601526105c9828261055d565b91505060208301516105de60208601826105a0565b508091505092915050565b5f6020820190508181035f83015261060181846105af565b905092915050565b7f4e487b71000000000000000000000000000000000000000000000000000000005f52603260045260245ffd5b7f4e487b71000000000000000000000000000000000000000000000000000000005f52602260045260245ffd5b5f600282049050600182168061067a57607f821691505b60208210810361068d5761068c610636565b5b50919050565b5f819050815f5260205f209050919050565b5f6020601f8301049050919050565b5f82821b905092915050565b5f600883026106ef7fffffffffffffffffffffffffffffffffffffffffffffffffffffffffffffffff826106b4565b6106f986836106b4565b95508019841693508086168417925050509392505050565b5f819050919050565b5f61073461072f61072a846102e0565b610711565b6102e0565b9050919050565b5f819050919050565b61074d8361071a565b6107616107598261073b565b8484546106c0565b825550505050565b5f90565b610775610769565b610780818484610744565b505050565b5b818110156107a3576107985f8261076d565b600181019050610786565b5050565b601f8211156107e8576107b981610693565b6107c2846106a5565b810160208510156107d1578190505b6107e56107dd856106a5565b830182610785565b50505b505050565b5f82821c905092915050565b5f6108085f19846008026107ed565b1980831691505092915050565b5f61082083836107f9565b9150826002028217905092915050565b6108398261051b565b67ffffffffffffffff8111156108525761085161032b565b5b61085c8254610663565b6108678282856107a7565b5f60209050601f831160018114610898575f8415610886578287015190505b6108908582610815565b8655506108f7565b601f1984166108a686610693565b5f5b828110156108cd578489015182556001820191506020850194506020810190506108a8565b868310156108ea57848901516108e6601f8916826107f9565b8355505b6001600288020188555050505b50505050505056fea264697066735822122093334cf92d9e11405adc9e5b2f42420ff733a7cf53f95b3b15d1966020c8878d64736f6c63430008140033",
					"opcodes": "PUSH1 0x80 PUSH1 0x40 MSTORE CALLVALUE DUP1 ISZERO PUSH2 0xF JUMPI PUSH0 DUP1 REVERT JUMPDEST POP PUSH2 0x935 DUP1 PUSH2 0x1D PUSH0 CODECOPY PUSH0 RETURN INVALID PUSH1 0x80 PUSH1 0x40 MSTORE CALLVALUE DUP1 ISZERO PUSH2 0xF JUMPI PUSH0 DUP1 REVERT JUMPDEST POP PUSH1 0x4 CALLDATASIZE LT PUSH2 0x4A JUMPI PUSH0 CALLDATALOAD PUSH1 0xE0 SHR DUP1 PUSH4 0x14DEE4B3 EQ PUSH2 0x4E JUMPI DUP1 PUSH4 0x1EC039D5 EQ PUSH2 0x6A JUMPI DUP1 PUSH4 0x2EBC0504 EQ PUSH2 0x86 JUMPI DUP1 PUSH4 0x9507D39A EQ PUSH2 0xA2 JUMPI JUMPDEST PUSH0 DUP1 REVERT JUMPDEST PUSH2 0x68 PUSH1 0x4 DUP1 CALLDATASIZE SUB DUP2 ADD SWAP1 PUSH2 0x63 SWAP2 SWAP1 PUSH2 0x44F JUMP JUMPDEST PUSH2 0xD2 JUMP JUMPDEST STOP JUMPDEST PUSH2 0x84 PUSH1 0x4 DUP1 CALLDATASIZE SUB DUP2 ADD SWAP1 PUSH2 0x7F SWAP2 SWAP1 PUSH2 0x4A9 JUMP JUMPDEST PUSH2 0x10A JUMP JUMPDEST STOP JUMPDEST PUSH2 0xA0 PUSH1 0x4 DUP1 CALLDATASIZE SUB DUP2 ADD SWAP1 PUSH2 0x9B SWAP2 SWAP1 PUSH2 0x4D4 JUMP JUMPDEST PUSH2 0x15C JUMP JUMPDEST STOP JUMPDEST PUSH2 0xBC PUSH1 0x4 DUP1 CALLDATASIZE SUB DUP2 ADD SWAP1 PUSH2 0xB7 SWAP2 SWAP1 PUSH2 0x4A9 JUMP JUMPDEST PUSH2 0x1D2 JUMP JUMPDEST PUSH1 0x40 MLOAD PUSH2 0xC9 SWAP2 SWAP1 PUSH2 0x5E9 JUMP JUMPDEST PUSH1 0x40 MLOAD DUP1 SWAP2 SUB SWAP1 RETURN JUMPDEST PUSH0 DUP1 DUP4 DUP2 SLOAD DUP2 LT PUSH2 0xE6 JUMPI PUSH2 0xE5 PUSH2 0x609 JUMP JUMPDEST JUMPDEST SWAP1 PUSH0 MSTORE PUSH1 0x20 PUSH0 KECCAK256 SWAP1 PUSH1 0x2 MUL ADD SWAP1 POP DUP2 DUP2 PUSH0 ADD SWAP1 DUP2 PUSH2 0x104 SWAP2 SWAP1 PUSH2 0x830 JUMP JUMPDEST POP POP POP POP JUMP JUMPDEST PUSH0 DUP1 DUP3 DUP2 SLOAD DUP2 LT PUSH2 0x11E JUMPI PUSH2 0x11D PUSH2 0x609 JUMP JUMPDEST JUMPDEST SWAP1 PUSH0 MSTORE PUSH1 0x20 PUSH0 KECCAK256 SWAP1 PUSH1 0x2 MUL ADD SWAP1 POP DUP1 PUSH1 0x1 ADD PUSH0 SWAP1 SLOAD SWAP1 PUSH2 0x100 EXP SWAP1 DIV PUSH1 0xFF AND ISZERO DUP2 PUSH1 0x1 ADD PUSH0 PUSH2 0x100 EXP DUP2 SLOAD DUP2 PUSH1 0xFF MUL NOT AND SWAP1 DUP4 ISZERO ISZERO MUL OR SWAP1 SSTORE POP POP POP JUMP JUMPDEST PUSH0 PUSH1 0x40 MLOAD DUP1 PUSH1 0x40 ADD PUSH1 0x40 MSTORE DUP1 DUP4 DUP2 MSTORE PUSH1 0x20 ADD PUSH0 ISZERO ISZERO DUP2 MSTORE POP SWAP1 DUP1 PUSH1 0x1 DUP2 SLOAD ADD DUP1 DUP3 SSTORE DUP1 SWAP2 POP POP PUSH1 0x1 SWAP1 SUB SWAP1 PUSH0 MSTORE PUSH1 0x20 PUSH0 KECCAK256 SWAP1 PUSH1 0x2 MUL ADD PUSH0 SWAP1 SWAP2 SWAP1 SWAP2 SWAP1 SWAP2 POP PUSH0 DUP3 ADD MLOAD DUP2 PUSH0 ADD SWAP1 DUP2 PUSH2 0x1AD SWAP2 SWAP1 PUSH2 0x830 JUMP JUMPDEST POP PUSH1 0x20 DUP3 ADD MLOAD DUP2 PUSH1 0x1 ADD PUSH0 PUSH2 0x100 EXP DUP2 SLOAD DUP2 PUSH1 0xFF MUL NOT AND SWAP1 DUP4 ISZERO ISZERO MUL OR SWAP1 SSTORE POP POP POP POP JUMP JUMPDEST PUSH2 0x1DA PUSH2 0x2B4 JUMP JUMPDEST PUSH0 DUP3 DUP2 SLOAD DUP2 LT PUSH2 0x1ED JUMPI PUSH2 0x1EC PUSH2 0x609 JUMP JUMPDEST JUMPDEST SWAP1 PUSH0 MSTORE PUSH1 0x20 PUSH0 KECCAK256 SWAP1 PUSH1 0x2 MUL ADD PUSH1 0x40 MLOAD DUP1 PUSH1 0x40 ADD PUSH1 0x40 MSTORE SWAP1 DUP2 PUSH0 DUP3 ADD DUP1 SLOAD PUSH2 0x213 SWAP1 PUSH2 0x663 JUMP JUMPDEST DUP1 PUSH1 0x1F ADD PUSH1 0x20 DUP1 SWAP2 DIV MUL PUSH1 0x20 ADD PUSH1 0x40 MLOAD SWAP1 DUP2 ADD PUSH1 0x40 MSTORE DUP1 SWAP3 SWAP2 SWAP1 DUP2 DUP2 MSTORE PUSH1 0x20 ADD DUP3 DUP1 SLOAD PUSH2 0x23F SWAP1 PUSH2 0x663 JUMP JUMPDEST DUP1 ISZERO PUSH2 0x28A JUMPI DUP1 PUSH1 0x1F LT PUSH2 0x261 JUMPI PUSH2 0x100 DUP1 DUP4 SLOAD DIV MUL DUP4 MSTORE SWAP2 PUSH1 0x20 ADD SWAP2 PUSH2 0x28A JUMP JUMPDEST DUP3 ADD SWAP2 SWAP1 PUSH0 MSTORE PUSH1 0x20 PUSH0 KECCAK256 SWAP1 JUMPDEST DUP2 SLOAD DUP2 MSTORE SWAP1 PUSH1 0x1 ADD SWAP1 PUSH1 0x20 ADD DUP1 DUP4 GT PUSH2 0x26D JUMPI DUP3 SWAP1 SUB PUSH1 0x1F AND DUP3 ADD SWAP2 JUMPDEST POP POP POP POP POP DUP2 MSTORE PUSH1 0x20 ADD PUSH1 0x1 DUP3 ADD PUSH0 SWAP1 SLOAD SWAP1 PUSH2 0x100 EXP SWAP1 DIV PUSH1 0xFF AND ISZERO ISZERO ISZERO ISZERO DUP2 MSTORE POP POP SWAP1 POP SWAP2 SWAP1 POP JUMP JUMPDEST PUSH1 0x40 MLOAD DUP1 PUSH1 0x40 ADD PUSH1 0x40 MSTORE DUP1 PUSH1 0x60 DUP2 MSTORE PUSH1 0x20 ADD PUSH0 ISZERO ISZERO DUP2 MSTORE POP SWAP1 JUMP JUMPDEST PUSH0 PUSH1 0x40 MLOAD SWAP1 POP SWAP1 JUMP JUMPDEST PUSH0 DUP1 REVERT JUMPDEST PUSH0 DUP1 REVERT JUMPDEST PUSH0 DUP2 SWAP1 POP SWAP2 SWAP1 POP JUMP JUMPDEST PUSH2 0x2F2 DUP2 PUSH2 0x2E0 JUMP JUMPDEST DUP2 EQ PUSH2 0x2FC JUMPI PUSH0 DUP1 REVERT JUMPDEST POP JUMP JUMPDEST PUSH0 DUP2 CALLDATALOAD SWAP1 POP PUSH2 0x30D DUP2 PUSH2 0x2E9 JUMP JUMPDEST SWAP3 SWAP2 POP POP JUMP JUMPDEST PUSH0 DUP1 REVERT JUMPDEST PUSH0 DUP1 REVERT JUMPDEST PUSH0 PUSH1 0x1F NOT PUSH1 0x1F DUP4 ADD AND SWAP1 POP SWAP2 SWAP1 POP JUMP JUMPDEST PUSH32 0x4E487B7100000000000000000000000000000000000000000000000000000000 PUSH0 MSTORE PUSH1 0x41 PUSH1 0x4 MSTORE PUSH1 0x24 PUSH0 REVERT JUMPDEST PUSH2 0x361 DUP3 PUSH2 0x31B JUMP JUMPDEST DUP2 ADD DUP2 DUP2 LT PUSH8 0xFFFFFFFFFFFFFFFF DUP3 GT OR ISZERO PUSH2 0x380 JUMPI PUSH2 0x37F PUSH2 0x32B JUMP JUMPDEST JUMPDEST DUP1 PUSH1 0x40 MSTORE POP POP POP JUMP JUMPDEST PUSH0 PUSH2 0x392 PUSH2 0x2CF JUMP JUMPDEST SWAP1 POP PUSH2 0x39E DUP3 DUP3 PUSH2 0x358 JUMP JUMPDEST SWAP2 SWAP1 POP JUMP JUMPDEST PUSH0 PUSH8 0xFFFFFFFFFFFFFFFF DUP3 GT ISZERO PUSH2 0x3BD JUMPI PUSH2 0x3BC PUSH2 0x32B JUMP JUMPDEST JUMPDEST PUSH2 0x3C6 DUP3 PUSH2 0x31B JUMP JUMPDEST SWAP1 POP PUSH1 0x20 DUP2 ADD SWAP1 POP SWAP2 SWAP1 POP JUMP JUMPDEST DUP3 DUP2 DUP4 CALLDATACOPY PUSH0 DUP4 DUP4 ADD MSTORE POP POP POP JUMP JUMPDEST PUSH0 PUSH2 0x3F3 PUSH2 0x3EE DUP5 PUSH2 0x3A3 JUMP JUMPDEST PUSH2 0x389 JUMP JUMPDEST SWAP1 POP DUP3 DUP2 MSTORE PUSH1 0x20 DUP2 ADD DUP5 DUP5 DUP5 ADD GT ISZERO PUSH2 0x40F JUMPI PUSH2 0x40E PUSH2 0x317 JUMP JUMPDEST JUMPDEST PUSH2 0x41A DUP5 DUP3 DUP6 PUSH2 0x3D3 JUMP JUMPDEST POP SWAP4 SWAP3 POP POP POP JUMP JUMPDEST PUSH0 DUP3 PUSH1 0x1F DUP4 ADD SLT PUSH2 0x436 JUMPI PUSH2 0x435 PUSH2 0x313 JUMP JUMPDEST JUMPDEST DUP2 CALLDATALOAD PUSH2 0x446 DUP5 DUP3 PUSH1 0x20 DUP7 ADD PUSH2 0x3E1 JUMP JUMPDEST SWAP2 POP POP SWAP3 SWAP2 POP POP JUMP JUMPDEST PUSH0 DUP1 PUSH1 0x40 DUP4 DUP6 SUB SLT ISZERO PUSH2 0x465 JUMPI PUSH2 0x464 PUSH2 0x2D8 JUMP JUMPDEST JUMPDEST PUSH0 PUSH2 0x472 DUP6 DUP3 DUP7 ADD PUSH2 0x2FF JUMP JUMPDEST SWAP3 POP POP PUSH1 0x20 DUP4 ADD CALLDATALOAD PUSH8 0xFFFFFFFFFFFFFFFF DUP2 GT ISZERO PUSH2 0x493 JUMPI PUSH2 0x492 PUSH2 0x2DC JUMP JUMPDEST JUMPDEST PUSH2 0x49F DUP6 DUP3 DUP7 ADD PUSH2 0x422 JUMP JUMPDEST SWAP2 POP POP SWAP3 POP SWAP3 SWAP1 POP JUMP JUMPDEST PUSH0 PUSH1 0x20 DUP3 DUP5 SUB SLT ISZERO PUSH2 0x4BE JUMPI PUSH2 0x4BD PUSH2 0x2D8 JUMP JUMPDEST JUMPDEST PUSH0 PUSH2 0x4CB DUP5 DUP3 DUP6 ADD PUSH2 0x2FF JUMP JUMPDEST SWAP2 POP POP SWAP3 SWAP2 POP POP JUMP JUMPDEST PUSH0 PUSH1 0x20 DUP3 DUP5 SUB SLT ISZERO PUSH2 0x4E9 JUMPI PUSH2 0x4E8 PUSH2 0x2D8 JUMP JUMPDEST JUMPDEST PUSH0 DUP3 ADD CALLDATALOAD PUSH8 0xFFFFFFFFFFFFFFFF DUP2 GT ISZERO PUSH2 0x506 JUMPI PUSH2 0x505 PUSH2 0x2DC JUMP JUMPDEST JUMPDEST PUSH2 0x512 DUP5 DUP3 DUP6 ADD PUSH2 0x422 JUMP JUMPDEST SWAP2 POP POP SWAP3 SWAP2 POP POP JUMP JUMPDEST PUSH0 DUP2 MLOAD SWAP1 POP SWAP2 SWAP1 POP JUMP JUMPDEST PUSH0 DUP3 DUP3 MSTORE PUSH1 0x20 DUP3 ADD SWAP1 POP SWAP3 SWAP2 POP POP JUMP JUMPDEST PUSH0 JUMPDEST DUP4 DUP2 LT ISZERO PUSH2 0x552 JUMPI DUP1 DUP3 ADD MLOAD DUP2 DUP5 ADD MSTORE PUSH1 0x20 DUP2 ADD SWAP1 POP PUSH2 0x537 JUMP JUMPDEST PUSH0 DUP5 DUP5 ADD MSTORE POP POP POP POP JUMP JUMPDEST PUSH0 PUSH2 0x567 DUP3 PUSH2 0x51B JUMP JUMPDEST PUSH2 0x571 DUP2 DUP6 PUSH2 0x525 JUMP JUMPDEST SWAP4 POP PUSH2 0x581 DUP2 DUP6 PUSH1 0x20 DUP7 ADD PUSH2 0x535 JUMP JUMPDEST PUSH2 0x58A DUP2 PUSH2 0x31B JUMP JUMPDEST DUP5 ADD SWAP2 POP POP SWAP3 SWAP2 POP POP JUMP JUMPDEST PUSH0 DUP2 ISZERO ISZERO SWAP1 POP SWAP2 SWAP1 POP JUMP JUMPDEST PUSH2 0x5A9 DUP2 PUSH2 0x595 JUMP JUMPDEST DUP3 MSTORE POP POP JUMP JUMPDEST PUSH0 PUSH1 0x40 DUP4 ADD PUSH0 DUP4 ADD MLOAD DUP5 DUP3 SUB PUSH0 DUP7 ADD MSTORE PUSH2 0x5C9 DUP3 DUP3 PUSH2 0x55D JUMP JUMPDEST SWAP2 POP POP PUSH1 0x20 DUP4 ADD MLOAD PUSH2 0x5DE PUSH1 0x20 DUP7 ADD DUP3 PUSH2 0x5A0 JUMP JUMPDEST POP DUP1 SWAP2 POP POP SWAP3 SWAP2 POP POP JUMP JUMPDEST PUSH0 PUSH1 0x20 DUP3 ADD SWAP1 POP DUP2 DUP2 SUB PUSH0 DUP4 ADD MSTORE PUSH2 0x601 DUP2 DUP5 PUSH2 0x5AF JUMP JUMPDEST SWAP1 POP SWAP3 SWAP2 POP POP JUMP JUMPDEST PUSH32 0x4E487B7100000000000000000000000000000000000000000000000000000000 PUSH0 MSTORE PUSH1 0x32 PUSH1 0x4 MSTORE PUSH1 0x24 PUSH0 REVERT JUMPDEST PUSH32 0x4E487B7100000000000000000000000000000000000000000000000000000000 PUSH0 MSTORE PUSH1 0x22 PUSH1 0x4 MSTORE PUSH1 0x24 PUSH0 REVERT JUMPDEST PUSH0 PUSH1 0x2 DUP3 DIV SWAP1 POP PUSH1 0x1 DUP3 AND DUP1 PUSH2 0x67A JUMPI PUSH1 0x7F DUP3 AND SWAP2 POP JUMPDEST PUSH1 0x20 DUP3 LT DUP2 SUB PUSH2 0x68D JUMPI PUSH2 0x68C PUSH2 0x636 JUMP JUMPDEST JUMPDEST POP SWAP2 SWAP1 POP JUMP JUMPDEST PUSH0 DUP2 SWAP1 POP DUP2 PUSH0 MSTORE PUSH1 0x20 PUSH0 KECCAK256 SWAP1 POP SWAP2 SWAP1 POP JUMP JUMPDEST PUSH0 PUSH1 0x20 PUSH1 0x1F DUP4 ADD DIV SWAP1 POP SWAP2 SWAP1 POP JUMP JUMPDEST PUSH0 DUP3 DUP3 SHL SWAP1 POP SWAP3 SWAP2 POP POP JUMP JUMPDEST PUSH0 PUSH1 0x8 DUP4 MUL PUSH2 0x6EF PUSH32 0xFFFFFFFFFFFFFFFFFFFFFFFFFFFFFFFFFFFFFFFFFFFFFFFFFFFFFFFFFFFFFFFF DUP3 PUSH2 0x6B4 JUMP JUMPDEST PUSH2 0x6F9 DUP7 DUP4 PUSH2 0x6B4 JUMP JUMPDEST SWAP6 POP DUP1 NOT DUP5 AND SWAP4 POP DUP1 DUP7 AND DUP5 OR SWAP3 POP POP POP SWAP4 SWAP3 POP POP POP JUMP JUMPDEST PUSH0 DUP2 SWAP1 POP SWAP2 SWAP1 POP JUMP JUMPDEST PUSH0 PUSH2 0x734 PUSH2 0x72F PUSH2 0x72A DUP5 PUSH2 0x2E0 JUMP JUMPDEST PUSH2 0x711 JUMP JUMPDEST PUSH2 0x2E0 JUMP JUMPDEST SWAP1 POP SWAP2 SWAP1 POP JUMP JUMPDEST PUSH0 DUP2 SWAP1 POP SWAP2 SWAP1 POP JUMP JUMPDEST PUSH2 0x74D DUP4 PUSH2 0x71A JUMP JUMPDEST PUSH2 0x761 PUSH2 0x759 DUP3 PUSH2 0x73B JUMP JUMPDEST DUP5 DUP5 SLOAD PUSH2 0x6C0 JUMP JUMPDEST DUP3 SSTORE POP POP POP POP JUMP JUMPDEST PUSH0 SWAP1 JUMP JUMPDEST PUSH2 0x775 PUSH2 0x769 JUMP JUMPDEST PUSH2 0x780 DUP2 DUP5 DUP5 PUSH2 0x744 JUMP JUMPDEST POP POP POP JUMP JUMPDEST JUMPDEST DUP2 DUP2 LT ISZERO PUSH2 0x7A3 JUMPI PUSH2 0x798 PUSH0 DUP3 PUSH2 0x76D JUMP JUMPDEST PUSH1 0x1 DUP2 ADD SWAP1 POP PUSH2 0x786 JUMP JUMPDEST POP POP JUMP JUMPDEST PUSH1 0x1F DUP3 GT ISZERO PUSH2 0x7E8 JUMPI PUSH2 0x7B9 DUP2 PUSH2 0x693 JUMP JUMPDEST PUSH2 0x7C2 DUP5 PUSH2 0x6A5 JUMP JUMPDEST DUP2 ADD PUSH1 0x20 DUP6 LT ISZERO PUSH2 0x7D1 JUMPI DUP2 SWAP1 POP JUMPDEST PUSH2 0x7E5 PUSH2 0x7DD DUP6 PUSH2 0x6A5 JUMP JUMPDEST DUP4 ADD DUP3 PUSH2 0x785 JUMP JUMPDEST POP POP JUMPDEST POP POP POP JUMP JUMPDEST PUSH0 DUP3 DUP3 SHR SWAP1 POP SWAP3 SWAP2 POP POP JUMP JUMPDEST PUSH0 PUSH2 0x808 PUSH0 NOT DUP5 PUSH1 0x8 MUL PUSH2 0x7ED JUMP JUMPDEST NOT DUP1 DUP4 AND SWAP2 POP POP SWAP3 SWAP2 POP POP JUMP JUMPDEST PUSH0 PUSH2 0x820 DUP4 DUP4 PUSH2 0x7F9 JUMP JUMPDEST SWAP2 POP DUP3 PUSH1 0x2 MUL DUP3 OR SWAP1 POP SWAP3 SWAP2 POP POP JUMP JUMPDEST PUSH2 0x839 DUP3 PUSH2 0x51B JUMP JUMPDEST PUSH8 0xFFFFFFFFFFFFFFFF DUP2 GT ISZERO PUSH2 0x852 JUMPI PUSH2 0x851 PUSH2 0x32B JUMP JUMPDEST JUMPDEST PUSH2 0x85C DUP3 SLOAD PUSH2 0x663 JUMP JUMPDEST PUSH2 0x867 DUP3 DUP3 DUP6 PUSH2 0x7A7 JUMP JUMPDEST PUSH0 PUSH1 0x20 SWAP1 POP PUSH1 0x1F DUP4 GT PUSH1 0x1 DUP2 EQ PUSH2 0x898 JUMPI PUSH0 DUP5 ISZERO PUSH2 0x886 JUMPI DUP3 DUP8 ADD MLOAD SWAP1 POP JUMPDEST PUSH2 0x890 DUP6 DUP3 PUSH2 0x815 JUMP JUMPDEST DUP7 SSTORE POP PUSH2 0x8F7 JUMP JUMPDEST PUSH1 0x1F NOT DUP5 AND PUSH2 0x8A6 DUP7 PUSH2 0x693 JUMP JUMPDEST PUSH0 JUMPDEST DUP3 DUP2 LT ISZERO PUSH2 0x8CD JUMPI DUP5 DUP10 ADD MLOAD DUP3 SSTORE PUSH1 0x1 DUP3 ADD SWAP2 POP PUSH1 0x20 DUP6 ADD SWAP5 POP PUSH1 0x20 DUP2 ADD SWAP1 POP PUSH2 0x8A8 JUMP JUMPDEST DUP7 DUP4 LT ISZERO PUSH2 0x8EA JUMPI DUP5 DUP10 ADD MLOAD PUSH2 0x8E6 PUSH1 0x1F DUP10 AND DUP3 PUSH2 0x7F9 JUMP JUMPDEST DUP4 SSTORE POP JUMPDEST PUSH1 0x1 PUSH1 0x2 DUP9 MUL ADD DUP9 SSTORE POP POP POP JUMPDEST POP POP POP POP POP POP JUMP INVALID LOG2 PUSH5 0x6970667358 0x22 SLT KECCAK256 SWAP4 CALLER 0x4C 0xF9 0x2D SWAP15 GT BLOCKHASH GAS 0xDC SWAP15 JUMPDEST 0x2F TIMESTAMP TIMESTAMP 0xF 0xF7 CALLER 0xA7 0xCF MSTORE8 0xF9 JUMPDEST EXTCODESIZE ISZERO 0xD1 SWAP7 PUSH1 0x20 0xC8 DUP8 DUP14 PUSH5 0x736F6C6343 STOP ADDMOD EQ STOP CALLER "
				},
				"gasEstimates": {
					"creation": {
						"codeDepositCost": "471400",
						"executionCost": "503",
						"totalCost": "471903"
					},
					"external": {
						"createGame(string)": "infinite",
						"get(uint256)": "infinite",
						"setOpposite(uint256)": "29018",
						"updateDescription(uint256,string)": "infinite"
					}
				},
				"methodIdentifiers": {
					"createGame(string)": "2ebc0504",
					"get(uint256)": "9507d39a",
					"setOpposite(uint256)": "1ec039d5",
					"updateDescription(uint256,string)": "14dee4b3"
				}
			},
			"storageLayout": {
				"storage": [
					{
						"astId": 13,
						"contract": "contracts/Struct.sol:Struct",
						"label": "games",
						"offset": 0,
						"slot": "0",
						"type": "t_array(t_struct(Games)6_storage)dyn_storage"
					}
				],
				"types": {
					"t_array(t_struct(Games)6_storage)dyn_storage": {
						"base": "t_struct(Games)6_storage",
						"encoding": "dynamic_array",
						"label": "struct Games[]",
						"numberOfBytes": "32"
					},
					"t_bool": {
						"encoding": "inplace",
						"label": "bool",
						"numberOfBytes": "1"
					},
					"t_string_storage": {
						"encoding": "bytes",
						"label": "string",
						"numberOfBytes": "32"
					},
					"t_struct(Games)6_storage": {
						"encoding": "inplace",
						"label": "struct Games",
						"members": [
							{
								"astId": 3,
								"contract": "contracts/Struct.sol:Struct",
								"label": "description",
								"offset": 0,
								"slot": "0",
								"type": "t_string_storage"
							},
							{
								"astId": 5,
								"contract": "contracts/Struct.sol:Struct",
								"label": "played",
								"offset": 0,
								"slot": "1",
								"type": "t_bool"
							}
						],
						"numberOfBytes": "64"
					}
				}
			},
			"userdoc": {
				"kind": "user",
				"methods": {},
				"version": 1
			}
		}
	}
}