{
	"contracts/Errors.sol": {
		"Errors": {
			"abi": [
				{
					"inputs": [
						{
							"internalType": "string",
							"name": "",
							"type": "string"
						}
					],
					"name": "CustomError",
					"type": "error"
				},
				{
					"inputs": [
						{
							"internalType": "uint256",
							"name": "amount",
							"type": "uint256"
						},
						{
							"internalType": "address",
							"name": "user",
							"type": "address"
						}
					],
					"name": "Insufficientbalance",
					"type": "error"
				},
				{
					"inputs": [],
					"name": "myNumber",
					"outputs": [
						{
							"internalType": "uint256",
							"name": "",
							"type": "uint256"
						}
					],
					"stateMutability": "view",
					"type": "function"
				},
				{
					"inputs": [],
					"name": "testAssert",
					"outputs": [],
					"stateMutability": "view",
					"type": "function"
				},
				{
					"inputs": [
						{
							"internalType": "uint256",
							"name": "_x",
							"type": "uint256"
						}
					],
					"name": "testRevert",
					"outputs": [],
					"stateMutability": "pure",
					"type": "function"
				},
				{
					"inputs": [
						{
							"internalType": "uint256",
							"name": "_x",
							"type": "uint256"
						}
					],
					"name": "testRquire",
					"outputs": [],
					"stateMutability": "pure",
					"type": "function"
				},
				{
					"inputs": [],
					"name": "userBalance",
					"outputs": [
						{
							"internalType": "uint256",
							"name": "",
							"type": "uint256"
						}
					],
					"stateMutability": "view",
					"type": "function"
				},
				{
					"inputs": [
						{
							"internalType": "uint256",
							"name": "_amountToWhitDraw",
							"type": "uint256"
						}
					],
					"name": "withdraw",
					"outputs": [],
					"stateMutability": "view",
					"type": "function"
				}
			],
			"devdoc": {
				"kind": "dev",
				"methods": {},
				"version": 1
			},
			"evm": {
				"assembly": "    /* \"contracts/Errors.sol\":62:891  contract Errors {... */\n  mstore(0x40, 0x80)\n    /* \"contracts/Errors.sol\":392:395  100 */\n  0x64\n    /* \"contracts/Errors.sol\":369:395  uint public myNumber = 100 */\n  0x00\n  sstore\n    /* \"contracts/Errors.sol\":608:611  100 */\n  0x64\n    /* \"contracts/Errors.sol\":582:611  uint public userBalance = 100 */\n  0x01\n  sstore\n    /* \"contracts/Errors.sol\":62:891  contract Errors {... */\n  callvalue\n  dup1\n  iszero\n  tag_1\n  jumpi\n  0x00\n  dup1\n  revert\ntag_1:\n  pop\n  dataSize(sub_0)\n  dup1\n  dataOffset(sub_0)\n  0x00\n  codecopy\n  0x00\n  return\nstop\n\nsub_0: assembly {\n        /* \"contracts/Errors.sol\":62:891  contract Errors {... */\n      mstore(0x40, 0x80)\n      callvalue\n      dup1\n      iszero\n      tag_1\n      jumpi\n      0x00\n      dup1\n      revert\n    tag_1:\n      pop\n      jumpi(tag_2, lt(calldatasize, 0x04))\n      shr(0xe0, calldataload(0x00))\n      dup1\n      0x20987767\n      eq\n      tag_3\n      jumpi\n      dup1\n      0x23fd0e40\n      eq\n      tag_4\n      jumpi\n      dup1\n      0x2b813bc0\n      eq\n      tag_5\n      jumpi\n      dup1\n      0x2e1a7d4d\n      eq\n      tag_6\n      jumpi\n      dup1\n      0x9b74be8f\n      eq\n      tag_7\n      jumpi\n      dup1\n      0xbf152765\n      eq\n      tag_8\n      jumpi\n    tag_2:\n      0x00\n      dup1\n      revert\n        /* \"contracts/Errors.sol\":231:361  function testRevert(uint _x) public pure {... */\n    tag_3:\n      tag_9\n      0x04\n      dup1\n      calldatasize\n      sub\n      dup2\n      add\n      swap1\n      tag_10\n      swap2\n      swap1\n      tag_11\n      jump\t// in\n    tag_10:\n      tag_12\n      jump\t// in\n    tag_9:\n      stop\n        /* \"contracts/Errors.sol\":369:395  uint public myNumber = 100 */\n    tag_4:\n      tag_13\n      tag_14\n      jump\t// in\n    tag_13:\n      mload(0x40)\n      tag_15\n      swap2\n      swap1\n      tag_16\n      jump\t// in\n    tag_15:\n      mload(0x40)\n      dup1\n      swap2\n      sub\n      swap1\n      return\n        /* \"contracts/Errors.sol\":404:480  function testAssert() public view {... */\n    tag_5:\n      tag_17\n      tag_18\n      jump\t// in\n    tag_17:\n      stop\n        /* \"contracts/Errors.sol\":620:888  function withdraw(uint _amountToWhitDraw) public view {... */\n    tag_6:\n      tag_19\n      0x04\n      dup1\n      calldatasize\n      sub\n      dup2\n      add\n      swap1\n      tag_20\n      swap2\n      swap1\n      tag_11\n      jump\t// in\n    tag_20:\n      tag_21\n      jump\t// in\n    tag_19:\n      stop\n        /* \"contracts/Errors.sol\":120:223  function testRquire(uint _x) public pure {... */\n    tag_7:\n      tag_22\n      0x04\n      dup1\n      calldatasize\n      sub\n      dup2\n      add\n      swap1\n      tag_23\n      swap2\n      swap1\n      tag_11\n      jump\t// in\n    tag_23:\n      tag_24\n      jump\t// in\n    tag_22:\n      stop\n        /* \"contracts/Errors.sol\":582:611  uint public userBalance = 100 */\n    tag_8:\n      tag_25\n      tag_26\n      jump\t// in\n    tag_25:\n      mload(0x40)\n      tag_27\n      swap2\n      swap1\n      tag_16\n      jump\t// in\n    tag_27:\n      mload(0x40)\n      dup1\n      swap2\n      sub\n      swap1\n      return\n        /* \"contracts/Errors.sol\":231:361  function testRevert(uint _x) public pure {... */\n    tag_12:\n        /* \"contracts/Errors.sol\":292:294  10 */\n      0x0a\n        /* \"contracts/Errors.sol\":286:288  _x */\n      dup2\n        /* \"contracts/Errors.sol\":286:294  _x <= 10 */\n      gt\n        /* \"contracts/Errors.sol\":283:354  if(_x <= 10){... */\n      tag_29\n      jumpi\n        /* \"contracts/Errors.sol\":310:342  revert(\"Must be greaer than 10\") */\n      mload(0x40)\n      0x08c379a000000000000000000000000000000000000000000000000000000000\n      dup2\n      mstore\n      0x04\n      add\n      tag_30\n      swap1\n      tag_31\n      jump\t// in\n    tag_30:\n      mload(0x40)\n      dup1\n      swap2\n      sub\n      swap1\n      revert\n        /* \"contracts/Errors.sol\":283:354  if(_x <= 10){... */\n    tag_29:\n        /* \"contracts/Errors.sol\":231:361  function testRevert(uint _x) public pure {... */\n      pop\n      jump\t// out\n        /* \"contracts/Errors.sol\":369:395  uint public myNumber = 100 */\n    tag_14:\n      sload(0x00)\n      dup2\n      jump\t// out\n        /* \"contracts/Errors.sol\":404:480  function testAssert() public view {... */\n    tag_18:\n        /* \"contracts/Errors.sol\":468:471  100 */\n      0x64\n        /* \"contracts/Errors.sol\":456:464  myNumber */\n      sload(0x00)\n        /* \"contracts/Errors.sol\":456:471  myNumber == 100 */\n      eq\n        /* \"contracts/Errors.sol\":449:472  assert(myNumber == 100) */\n      tag_33\n      jumpi\n      tag_34\n      tag_35\n      jump\t// in\n    tag_34:\n    tag_33:\n        /* \"contracts/Errors.sol\":404:480  function testAssert() public view {... */\n      jump\t// out\n        /* \"contracts/Errors.sol\":620:888  function withdraw(uint _amountToWhitDraw) public view {... */\n    tag_21:\n        /* \"contracts/Errors.sol\":710:721  userBalance */\n      sload(0x01)\n        /* \"contracts/Errors.sol\":689:706  _amountToWhitDraw */\n      dup2\n        /* \"contracts/Errors.sol\":689:721  _amountToWhitDraw <= userBalance */\n      gt\n        /* \"contracts/Errors.sol\":685:881  if (_amountToWhitDraw <= userBalance){... */\n      tag_37\n      jumpi\n        /* \"contracts/Errors.sol\":764:781  _amountToWhitDraw */\n      dup1\n        /* \"contracts/Errors.sol\":783:793  msg.sender */\n      caller\n        /* \"contracts/Errors.sol\":744:794  Insufficientbalance(_amountToWhitDraw, msg.sender) */\n      mload(0x40)\n      0x1a4e2de600000000000000000000000000000000000000000000000000000000\n      dup2\n      mstore\n      0x04\n      add\n      tag_38\n      swap3\n      swap2\n      swap1\n      tag_39\n      jump\t// in\n    tag_38:\n      mload(0x40)\n      dup1\n      swap2\n      sub\n      swap1\n      revert\n        /* \"contracts/Errors.sol\":685:881  if (_amountToWhitDraw <= userBalance){... */\n    tag_37:\n        /* \"contracts/Errors.sol\":834:869  CustomError(\"Insufficient balance\") */\n      mload(0x40)\n      0x8d6ea8be00000000000000000000000000000000000000000000000000000000\n      dup2\n      mstore\n      0x04\n      add\n      tag_41\n      swap1\n      tag_42\n      jump\t// in\n    tag_41:\n      mload(0x40)\n      dup1\n      swap2\n      sub\n      swap1\n      revert\n        /* \"contracts/Errors.sol\":120:223  function testRquire(uint _x) public pure {... */\n    tag_24:\n        /* \"contracts/Errors.sol\":185:187  10 */\n      0x0a\n        /* \"contracts/Errors.sol\":180:182  _x */\n      dup2\n        /* \"contracts/Errors.sol\":180:187  _x > 10 */\n      gt\n        /* \"contracts/Errors.sol\":172:215  require(_x > 10, \"Must be greater than 10\") */\n      tag_44\n      jumpi\n      mload(0x40)\n      0x08c379a000000000000000000000000000000000000000000000000000000000\n      dup2\n      mstore\n      0x04\n      add\n      tag_45\n      swap1\n      tag_46\n      jump\t// in\n    tag_45:\n      mload(0x40)\n      dup1\n      swap2\n      sub\n      swap1\n      revert\n    tag_44:\n        /* \"contracts/Errors.sol\":120:223  function testRquire(uint _x) public pure {... */\n      pop\n      jump\t// out\n        /* \"contracts/Errors.sol\":582:611  uint public userBalance = 100 */\n    tag_26:\n      sload(0x01)\n      dup2\n      jump\t// out\n        /* \"#utility.yul\":88:205   */\n    tag_48:\n        /* \"#utility.yul\":197:198   */\n      0x00\n        /* \"#utility.yul\":194:195   */\n      dup1\n        /* \"#utility.yul\":187:199   */\n      revert\n        /* \"#utility.yul\":334:411   */\n    tag_50:\n        /* \"#utility.yul\":371:378   */\n      0x00\n        /* \"#utility.yul\":400:405   */\n      dup2\n        /* \"#utility.yul\":389:405   */\n      swap1\n      pop\n        /* \"#utility.yul\":334:411   */\n      swap2\n      swap1\n      pop\n      jump\t// out\n        /* \"#utility.yul\":417:539   */\n    tag_51:\n        /* \"#utility.yul\":490:514   */\n      tag_70\n        /* \"#utility.yul\":508:513   */\n      dup2\n        /* \"#utility.yul\":490:514   */\n      tag_50\n      jump\t// in\n    tag_70:\n        /* \"#utility.yul\":483:488   */\n      dup2\n        /* \"#utility.yul\":480:515   */\n      eq\n        /* \"#utility.yul\":470:533   */\n      tag_71\n      jumpi\n        /* \"#utility.yul\":529:530   */\n      0x00\n        /* \"#utility.yul\":526:527   */\n      dup1\n        /* \"#utility.yul\":519:531   */\n      revert\n        /* \"#utility.yul\":470:533   */\n    tag_71:\n        /* \"#utility.yul\":417:539   */\n      pop\n      jump\t// out\n        /* \"#utility.yul\":545:684   */\n    tag_52:\n        /* \"#utility.yul\":591:596   */\n      0x00\n        /* \"#utility.yul\":629:635   */\n      dup2\n        /* \"#utility.yul\":616:636   */\n      calldataload\n        /* \"#utility.yul\":607:636   */\n      swap1\n      pop\n        /* \"#utility.yul\":645:678   */\n      tag_73\n        /* \"#utility.yul\":672:677   */\n      dup2\n        /* \"#utility.yul\":645:678   */\n      tag_51\n      jump\t// in\n    tag_73:\n        /* \"#utility.yul\":545:684   */\n      swap3\n      swap2\n      pop\n      pop\n      jump\t// out\n        /* \"#utility.yul\":690:1019   */\n    tag_11:\n        /* \"#utility.yul\":749:755   */\n      0x00\n        /* \"#utility.yul\":798:800   */\n      0x20\n        /* \"#utility.yul\":786:795   */\n      dup3\n        /* \"#utility.yul\":777:784   */\n      dup5\n        /* \"#utility.yul\":773:796   */\n      sub\n        /* \"#utility.yul\":769:801   */\n      slt\n        /* \"#utility.yul\":766:885   */\n      iszero\n      tag_75\n      jumpi\n        /* \"#utility.yul\":804:883   */\n      tag_76\n      tag_48\n      jump\t// in\n    tag_76:\n        /* \"#utility.yul\":766:885   */\n    tag_75:\n        /* \"#utility.yul\":924:925   */\n      0x00\n        /* \"#utility.yul\":949:1002   */\n      tag_77\n        /* \"#utility.yul\":994:1001   */\n      dup5\n        /* \"#utility.yul\":985:991   */\n      dup3\n        /* \"#utility.yul\":974:983   */\n      dup6\n        /* \"#utility.yul\":970:992   */\n      add\n        /* \"#utility.yul\":949:1002   */\n      tag_52\n      jump\t// in\n    tag_77:\n        /* \"#utility.yul\":939:1002   */\n      swap2\n      pop\n        /* \"#utility.yul\":895:1012   */\n      pop\n        /* \"#utility.yul\":690:1019   */\n      swap3\n      swap2\n      pop\n      pop\n      jump\t// out\n        /* \"#utility.yul\":1025:1143   */\n    tag_53:\n        /* \"#utility.yul\":1112:1136   */\n      tag_79\n        /* \"#utility.yul\":1130:1135   */\n      dup2\n        /* \"#utility.yul\":1112:1136   */\n      tag_50\n      jump\t// in\n    tag_79:\n        /* \"#utility.yul\":1107:1110   */\n      dup3\n        /* \"#utility.yul\":1100:1137   */\n      mstore\n        /* \"#utility.yul\":1025:1143   */\n      pop\n      pop\n      jump\t// out\n        /* \"#utility.yul\":1149:1371   */\n    tag_16:\n        /* \"#utility.yul\":1242:1246   */\n      0x00\n        /* \"#utility.yul\":1280:1282   */\n      0x20\n        /* \"#utility.yul\":1269:1278   */\n      dup3\n        /* \"#utility.yul\":1265:1283   */\n      add\n        /* \"#utility.yul\":1257:1283   */\n      swap1\n      pop\n        /* \"#utility.yul\":1293:1364   */\n      tag_81\n        /* \"#utility.yul\":1361:1362   */\n      0x00\n        /* \"#utility.yul\":1350:1359   */\n      dup4\n        /* \"#utility.yul\":1346:1363   */\n      add\n        /* \"#utility.yul\":1337:1343   */\n      dup5\n        /* \"#utility.yul\":1293:1364   */\n      tag_53\n      jump\t// in\n    tag_81:\n        /* \"#utility.yul\":1149:1371   */\n      swap3\n      swap2\n      pop\n      pop\n      jump\t// out\n        /* \"#utility.yul\":1377:1546   */\n    tag_54:\n        /* \"#utility.yul\":1461:1472   */\n      0x00\n        /* \"#utility.yul\":1495:1501   */\n      dup3\n        /* \"#utility.yul\":1490:1493   */\n      dup3\n        /* \"#utility.yul\":1483:1502   */\n      mstore\n        /* \"#utility.yul\":1535:1539   */\n      0x20\n        /* \"#utility.yul\":1530:1533   */\n      dup3\n        /* \"#utility.yul\":1526:1540   */\n      add\n        /* \"#utility.yul\":1511:1540   */\n      swap1\n      pop\n        /* \"#utility.yul\":1377:1546   */\n      swap3\n      swap2\n      pop\n      pop\n      jump\t// out\n        /* \"#utility.yul\":1552:1724   */\n    tag_55:\n        /* \"#utility.yul\":1692:1716   */\n      0x4d75737420626520677265616572207468616e20313000000000000000000000\n        /* \"#utility.yul\":1688:1689   */\n      0x00\n        /* \"#utility.yul\":1680:1686   */\n      dup3\n        /* \"#utility.yul\":1676:1690   */\n      add\n        /* \"#utility.yul\":1669:1717   */\n      mstore\n        /* \"#utility.yul\":1552:1724   */\n      pop\n      jump\t// out\n        /* \"#utility.yul\":1730:2096   */\n    tag_56:\n        /* \"#utility.yul\":1872:1875   */\n      0x00\n        /* \"#utility.yul\":1893:1960   */\n      tag_85\n        /* \"#utility.yul\":1957:1959   */\n      0x16\n        /* \"#utility.yul\":1952:1955   */\n      dup4\n        /* \"#utility.yul\":1893:1960   */\n      tag_54\n      jump\t// in\n    tag_85:\n        /* \"#utility.yul\":1886:1960   */\n      swap2\n      pop\n        /* \"#utility.yul\":1969:2062   */\n      tag_86\n        /* \"#utility.yul\":2058:2061   */\n      dup3\n        /* \"#utility.yul\":1969:2062   */\n      tag_55\n      jump\t// in\n    tag_86:\n        /* \"#utility.yul\":2087:2089   */\n      0x20\n        /* \"#utility.yul\":2082:2085   */\n      dup3\n        /* \"#utility.yul\":2078:2090   */\n      add\n        /* \"#utility.yul\":2071:2090   */\n      swap1\n      pop\n        /* \"#utility.yul\":1730:2096   */\n      swap2\n      swap1\n      pop\n      jump\t// out\n        /* \"#utility.yul\":2102:2521   */\n    tag_31:\n        /* \"#utility.yul\":2268:2272   */\n      0x00\n        /* \"#utility.yul\":2306:2308   */\n      0x20\n        /* \"#utility.yul\":2295:2304   */\n      dup3\n        /* \"#utility.yul\":2291:2309   */\n      add\n        /* \"#utility.yul\":2283:2309   */\n      swap1\n      pop\n        /* \"#utility.yul\":2355:2364   */\n      dup2\n        /* \"#utility.yul\":2349:2353   */\n      dup2\n        /* \"#utility.yul\":2345:2365   */\n      sub\n        /* \"#utility.yul\":2341:2342   */\n      0x00\n        /* \"#utility.yul\":2330:2339   */\n      dup4\n        /* \"#utility.yul\":2326:2343   */\n      add\n        /* \"#utility.yul\":2319:2366   */\n      mstore\n        /* \"#utility.yul\":2383:2514   */\n      tag_88\n        /* \"#utility.yul\":2509:2513   */\n      dup2\n        /* \"#utility.yul\":2383:2514   */\n      tag_56\n      jump\t// in\n    tag_88:\n        /* \"#utility.yul\":2375:2514   */\n      swap1\n      pop\n        /* \"#utility.yul\":2102:2521   */\n      swap2\n      swap1\n      pop\n      jump\t// out\n        /* \"#utility.yul\":2527:2707   */\n    tag_35:\n        /* \"#utility.yul\":2575:2652   */\n      0x4e487b7100000000000000000000000000000000000000000000000000000000\n        /* \"#utility.yul\":2572:2573   */\n      0x00\n        /* \"#utility.yul\":2565:2653   */\n      mstore\n        /* \"#utility.yul\":2672:2676   */\n      0x01\n        /* \"#utility.yul\":2669:2670   */\n      0x04\n        /* \"#utility.yul\":2662:2677   */\n      mstore\n        /* \"#utility.yul\":2696:2700   */\n      0x24\n        /* \"#utility.yul\":2693:2694   */\n      0x00\n        /* \"#utility.yul\":2686:2701   */\n      revert\n        /* \"#utility.yul\":2713:2839   */\n    tag_57:\n        /* \"#utility.yul\":2750:2757   */\n      0x00\n        /* \"#utility.yul\":2790:2832   */\n      0xffffffffffffffffffffffffffffffffffffffff\n        /* \"#utility.yul\":2783:2788   */\n      dup3\n        /* \"#utility.yul\":2779:2833   */\n      and\n        /* \"#utility.yul\":2768:2833   */\n      swap1\n      pop\n        /* \"#utility.yul\":2713:2839   */\n      swap2\n      swap1\n      pop\n      jump\t// out\n        /* \"#utility.yul\":2845:2941   */\n    tag_58:\n        /* \"#utility.yul\":2882:2889   */\n      0x00\n        /* \"#utility.yul\":2911:2935   */\n      tag_92\n        /* \"#utility.yul\":2929:2934   */\n      dup3\n        /* \"#utility.yul\":2911:2935   */\n      tag_57\n      jump\t// in\n    tag_92:\n        /* \"#utility.yul\":2900:2935   */\n      swap1\n      pop\n        /* \"#utility.yul\":2845:2941   */\n      swap2\n      swap1\n      pop\n      jump\t// out\n        /* \"#utility.yul\":2947:3065   */\n    tag_59:\n        /* \"#utility.yul\":3034:3058   */\n      tag_94\n        /* \"#utility.yul\":3052:3057   */\n      dup2\n        /* \"#utility.yul\":3034:3058   */\n      tag_58\n      jump\t// in\n    tag_94:\n        /* \"#utility.yul\":3029:3032   */\n      dup3\n        /* \"#utility.yul\":3022:3059   */\n      mstore\n        /* \"#utility.yul\":2947:3065   */\n      pop\n      pop\n      jump\t// out\n        /* \"#utility.yul\":3071:3403   */\n    tag_39:\n        /* \"#utility.yul\":3192:3196   */\n      0x00\n        /* \"#utility.yul\":3230:3232   */\n      0x40\n        /* \"#utility.yul\":3219:3228   */\n      dup3\n        /* \"#utility.yul\":3215:3233   */\n      add\n        /* \"#utility.yul\":3207:3233   */\n      swap1\n      pop\n        /* \"#utility.yul\":3243:3314   */\n      tag_96\n        /* \"#utility.yul\":3311:3312   */\n      0x00\n        /* \"#utility.yul\":3300:3309   */\n      dup4\n        /* \"#utility.yul\":3296:3313   */\n      add\n        /* \"#utility.yul\":3287:3293   */\n      dup6\n        /* \"#utility.yul\":3243:3314   */\n      tag_53\n      jump\t// in\n    tag_96:\n        /* \"#utility.yul\":3324:3396   */\n      tag_97\n        /* \"#utility.yul\":3392:3394   */\n      0x20\n        /* \"#utility.yul\":3381:3390   */\n      dup4\n        /* \"#utility.yul\":3377:3395   */\n      add\n        /* \"#utility.yul\":3368:3374   */\n      dup5\n        /* \"#utility.yul\":3324:3396   */\n      tag_59\n      jump\t// in\n    tag_97:\n        /* \"#utility.yul\":3071:3403   */\n      swap4\n      swap3\n      pop\n      pop\n      pop\n      jump\t// out\n        /* \"#utility.yul\":3409:3579   */\n    tag_60:\n        /* \"#utility.yul\":3549:3571   */\n      0x496e73756666696369656e742062616c616e6365000000000000000000000000\n        /* \"#utility.yul\":3545:3546   */\n      0x00\n        /* \"#utility.yul\":3537:3543   */\n      dup3\n        /* \"#utility.yul\":3533:3547   */\n      add\n        /* \"#utility.yul\":3526:3572   */\n      mstore\n        /* \"#utility.yul\":3409:3579   */\n      pop\n      jump\t// out\n        /* \"#utility.yul\":3585:3951   */\n    tag_61:\n        /* \"#utility.yul\":3727:3730   */\n      0x00\n        /* \"#utility.yul\":3748:3815   */\n      tag_100\n        /* \"#utility.yul\":3812:3814   */\n      0x14\n        /* \"#utility.yul\":3807:3810   */\n      dup4\n        /* \"#utility.yul\":3748:3815   */\n      tag_54\n      jump\t// in\n    tag_100:\n        /* \"#utility.yul\":3741:3815   */\n      swap2\n      pop\n        /* \"#utility.yul\":3824:3917   */\n      tag_101\n        /* \"#utility.yul\":3913:3916   */\n      dup3\n        /* \"#utility.yul\":3824:3917   */\n      tag_60\n      jump\t// in\n    tag_101:\n        /* \"#utility.yul\":3942:3944   */\n      0x20\n        /* \"#utility.yul\":3937:3940   */\n      dup3\n        /* \"#utility.yul\":3933:3945   */\n      add\n        /* \"#utility.yul\":3926:3945   */\n      swap1\n      pop\n        /* \"#utility.yul\":3585:3951   */\n      swap2\n      swap1\n      pop\n      jump\t// out\n        /* \"#utility.yul\":3957:4376   */\n    tag_42:\n        /* \"#utility.yul\":4123:4127   */\n      0x00\n        /* \"#utility.yul\":4161:4163   */\n      0x20\n        /* \"#utility.yul\":4150:4159   */\n      dup3\n        /* \"#utility.yul\":4146:4164   */\n      add\n        /* \"#utility.yul\":4138:4164   */\n      swap1\n      pop\n        /* \"#utility.yul\":4210:4219   */\n      dup2\n        /* \"#utility.yul\":4204:4208   */\n      dup2\n        /* \"#utility.yul\":4200:4220   */\n      sub\n        /* \"#utility.yul\":4196:4197   */\n      0x00\n        /* \"#utility.yul\":4185:4194   */\n      dup4\n        /* \"#utility.yul\":4181:4198   */\n      add\n        /* \"#utility.yul\":4174:4221   */\n      mstore\n        /* \"#utility.yul\":4238:4369   */\n      tag_103\n        /* \"#utility.yul\":4364:4368   */\n      dup2\n        /* \"#utility.yul\":4238:4369   */\n      tag_61\n      jump\t// in\n    tag_103:\n        /* \"#utility.yul\":4230:4369   */\n      swap1\n      pop\n        /* \"#utility.yul\":3957:4376   */\n      swap2\n      swap1\n      pop\n      jump\t// out\n        /* \"#utility.yul\":4382:4555   */\n    tag_62:\n        /* \"#utility.yul\":4522:4547   */\n      0x4d7573742062652067726561746572207468616e203130000000000000000000\n        /* \"#utility.yul\":4518:4519   */\n      0x00\n        /* \"#utility.yul\":4510:4516   */\n      dup3\n        /* \"#utility.yul\":4506:4520   */\n      add\n        /* \"#utility.yul\":4499:4548   */\n      mstore\n        /* \"#utility.yul\":4382:4555   */\n      pop\n      jump\t// out\n        /* \"#utility.yul\":4561:4927   */\n    tag_63:\n        /* \"#utility.yul\":4703:4706   */\n      0x00\n        /* \"#utility.yul\":4724:4791   */\n      tag_106\n        /* \"#utility.yul\":4788:4790   */\n      0x17\n        /* \"#utility.yul\":4783:4786   */\n      dup4\n        /* \"#utility.yul\":4724:4791   */\n      tag_54\n      jump\t// in\n    tag_106:\n        /* \"#utility.yul\":4717:4791   */\n      swap2\n      pop\n        /* \"#utility.yul\":4800:4893   */\n      tag_107\n        /* \"#utility.yul\":4889:4892   */\n      dup3\n        /* \"#utility.yul\":4800:4893   */\n      tag_62\n      jump\t// in\n    tag_107:\n        /* \"#utility.yul\":4918:4920   */\n      0x20\n        /* \"#utility.yul\":4913:4916   */\n      dup3\n        /* \"#utility.yul\":4909:4921   */\n      add\n        /* \"#utility.yul\":4902:4921   */\n      swap1\n      pop\n        /* \"#utility.yul\":4561:4927   */\n      swap2\n      swap1\n      pop\n      jump\t// out\n        /* \"#utility.yul\":4933:5352   */\n    tag_46:\n        /* \"#utility.yul\":5099:5103   */\n      0x00\n        /* \"#utility.yul\":5137:5139   */\n      0x20\n        /* \"#utility.yul\":5126:5135   */\n      dup3\n        /* \"#utility.yul\":5122:5140   */\n      add\n        /* \"#utility.yul\":5114:5140   */\n      swap1\n      pop\n        /* \"#utility.yul\":5186:5195   */\n      dup2\n        /* \"#utility.yul\":5180:5184   */\n      dup2\n        /* \"#utility.yul\":5176:5196   */\n      sub\n        /* \"#utility.yul\":5172:5173   */\n      0x00\n        /* \"#utility.yul\":5161:5170   */\n      dup4\n        /* \"#utility.yul\":5157:5174   */\n      add\n        /* \"#utility.yul\":5150:5197   */\n      mstore\n        /* \"#utility.yul\":5214:5345   */\n      tag_109\n        /* \"#utility.yul\":5340:5344   */\n      dup2\n        /* \"#utility.yul\":5214:5345   */\n      tag_63\n      jump\t// in\n    tag_109:\n        /* \"#utility.yul\":5206:5345   */\n      swap1\n      pop\n        /* \"#utility.yul\":4933:5352   */\n      swap2\n      swap1\n      pop\n      jump\t// out\n\n    auxdata: 0xa264697066735822122063cf48fcb83b93c0e2343a279d3eef13fd7d16433fd2b5e62662d2c7015aad5064736f6c63430008140033\n}\n",
				"bytecode": {
					"linkReferences": {},
					"object": "608060405260645f556064600155348015610018575f80fd5b506104c7806100265f395ff3fe608060405234801561000f575f80fd5b5060043610610060575f3560e01c8063209877671461006457806323fd0e40146100805780632b813bc01461009e5780632e1a7d4d146100a85780639b74be8f146100c4578063bf152765146100e0575b5f80fd5b61007e60048036038101906100799190610263565b6100fe565b005b610088610144565b604051610095919061029d565b60405180910390f35b6100a6610149565b005b6100c260048036038101906100bd9190610263565b61015d565b005b6100de60048036038101906100d99190610263565b6101e0565b005b6100e8610226565b6040516100f5919061029d565b60405180910390f35b600a8111610141576040517f08c379a000000000000000000000000000000000000000000000000000000000815260040161013890610310565b60405180910390fd5b50565b5f5481565b60645f541461015b5761015a61032e565b5b565b60015481116101a55780336040517f1a4e2de600000000000000000000000000000000000000000000000000000000815260040161019c92919061039a565b60405180910390fd5b6040517f8d6ea8be0000000000000000000000000000000000000000000000000000000081526004016101d79061040b565b60405180910390fd5b600a8111610223576040517f08c379a000000000000000000000000000000000000000000000000000000000815260040161021a90610473565b60405180910390fd5b50565b60015481565b5f80fd5b5f819050919050565b61024281610230565b811461024c575f80fd5b50565b5f8135905061025d81610239565b92915050565b5f602082840312156102785761027761022c565b5b5f6102858482850161024f565b91505092915050565b61029781610230565b82525050565b5f6020820190506102b05f83018461028e565b92915050565b5f82825260208201905092915050565b7f4d75737420626520677265616572207468616e203130000000000000000000005f82015250565b5f6102fa6016836102b6565b9150610305826102c6565b602082019050919050565b5f6020820190508181035f830152610327816102ee565b9050919050565b7f4e487b71000000000000000000000000000000000000000000000000000000005f52600160045260245ffd5b5f73ffffffffffffffffffffffffffffffffffffffff82169050919050565b5f6103848261035b565b9050919050565b6103948161037a565b82525050565b5f6040820190506103ad5f83018561028e565b6103ba602083018461038b565b9392505050565b7f496e73756666696369656e742062616c616e63650000000000000000000000005f82015250565b5f6103f56014836102b6565b9150610400826103c1565b602082019050919050565b5f6020820190508181035f830152610422816103e9565b9050919050565b7f4d7573742062652067726561746572207468616e2031300000000000000000005f82015250565b5f61045d6017836102b6565b915061046882610429565b602082019050919050565b5f6020820190508181035f83015261048a81610451565b905091905056fea264697066735822122063cf48fcb83b93c0e2343a279d3eef13fd7d16433fd2b5e62662d2c7015aad5064736f6c63430008140033",
					"opcodes": "PUSH1 0x80 PUSH1 0x40 MSTORE PUSH1 0x64 PUSH0 SSTORE PUSH1 0x64 PUSH1 0x1 SSTORE CALLVALUE DUP1 ISZERO PUSH2 0x18 JUMPI PUSH0 DUP1 REVERT JUMPDEST POP PUSH2 0x4C7 DUP1 PUSH2 0x26 PUSH0 CODECOPY PUSH0 RETURN INVALID PUSH1 0x80 PUSH1 0x40 MSTORE CALLVALUE DUP1 ISZERO PUSH2 0xF JUMPI PUSH0 DUP1 REVERT JUMPDEST POP PUSH1 0x4 CALLDATASIZE LT PUSH2 0x60 JUMPI PUSH0 CALLDATALOAD PUSH1 0xE0 SHR DUP1 PUSH4 0x20987767 EQ PUSH2 0x64 JUMPI DUP1 PUSH4 0x23FD0E40 EQ PUSH2 0x80 JUMPI DUP1 PUSH4 0x2B813BC0 EQ PUSH2 0x9E JUMPI DUP1 PUSH4 0x2E1A7D4D EQ PUSH2 0xA8 JUMPI DUP1 PUSH4 0x9B74BE8F EQ PUSH2 0xC4 JUMPI DUP1 PUSH4 0xBF152765 EQ PUSH2 0xE0 JUMPI JUMPDEST PUSH0 DUP1 REVERT JUMPDEST PUSH2 0x7E PUSH1 0x4 DUP1 CALLDATASIZE SUB DUP2 ADD SWAP1 PUSH2 0x79 SWAP2 SWAP1 PUSH2 0x263 JUMP JUMPDEST PUSH2 0xFE JUMP JUMPDEST STOP JUMPDEST PUSH2 0x88 PUSH2 0x144 JUMP JUMPDEST PUSH1 0x40 MLOAD PUSH2 0x95 SWAP2 SWAP1 PUSH2 0x29D JUMP JUMPDEST PUSH1 0x40 MLOAD DUP1 SWAP2 SUB SWAP1 RETURN JUMPDEST PUSH2 0xA6 PUSH2 0x149 JUMP JUMPDEST STOP JUMPDEST PUSH2 0xC2 PUSH1 0x4 DUP1 CALLDATASIZE SUB DUP2 ADD SWAP1 PUSH2 0xBD SWAP2 SWAP1 PUSH2 0x263 JUMP JUMPDEST PUSH2 0x15D JUMP JUMPDEST STOP JUMPDEST PUSH2 0xDE PUSH1 0x4 DUP1 CALLDATASIZE SUB DUP2 ADD SWAP1 PUSH2 0xD9 SWAP2 SWAP1 PUSH2 0x263 JUMP JUMPDEST PUSH2 0x1E0 JUMP JUMPDEST STOP JUMPDEST PUSH2 0xE8 PUSH2 0x226 JUMP JUMPDEST PUSH1 0x40 MLOAD PUSH2 0xF5 SWAP2 SWAP1 PUSH2 0x29D JUMP JUMPDEST PUSH1 0x40 MLOAD DUP1 SWAP2 SUB SWAP1 RETURN JUMPDEST PUSH1 0xA DUP2 GT PUSH2 0x141 JUMPI PUSH1 0x40 MLOAD PUSH32 0x8C379A000000000000000000000000000000000000000000000000000000000 DUP2 MSTORE PUSH1 0x4 ADD PUSH2 0x138 SWAP1 PUSH2 0x310 JUMP JUMPDEST PUSH1 0x40 MLOAD DUP1 SWAP2 SUB SWAP1 REVERT JUMPDEST POP JUMP JUMPDEST PUSH0 SLOAD DUP2 JUMP JUMPDEST PUSH1 0x64 PUSH0 SLOAD EQ PUSH2 0x15B JUMPI PUSH2 0x15A PUSH2 0x32E JUMP JUMPDEST JUMPDEST JUMP JUMPDEST PUSH1 0x1 SLOAD DUP2 GT PUSH2 0x1A5 JUMPI DUP1 CALLER PUSH1 0x40 MLOAD PUSH32 0x1A4E2DE600000000000000000000000000000000000000000000000000000000 DUP2 MSTORE PUSH1 0x4 ADD PUSH2 0x19C SWAP3 SWAP2 SWAP1 PUSH2 0x39A JUMP JUMPDEST PUSH1 0x40 MLOAD DUP1 SWAP2 SUB SWAP1 REVERT JUMPDEST PUSH1 0x40 MLOAD PUSH32 0x8D6EA8BE00000000000000000000000000000000000000000000000000000000 DUP2 MSTORE PUSH1 0x4 ADD PUSH2 0x1D7 SWAP1 PUSH2 0x40B JUMP JUMPDEST PUSH1 0x40 MLOAD DUP1 SWAP2 SUB SWAP1 REVERT JUMPDEST PUSH1 0xA DUP2 GT PUSH2 0x223 JUMPI PUSH1 0x40 MLOAD PUSH32 0x8C379A000000000000000000000000000000000000000000000000000000000 DUP2 MSTORE PUSH1 0x4 ADD PUSH2 0x21A SWAP1 PUSH2 0x473 JUMP JUMPDEST PUSH1 0x40 MLOAD DUP1 SWAP2 SUB SWAP1 REVERT JUMPDEST POP JUMP JUMPDEST PUSH1 0x1 SLOAD DUP2 JUMP JUMPDEST PUSH0 DUP1 REVERT JUMPDEST PUSH0 DUP2 SWAP1 POP SWAP2 SWAP1 POP JUMP JUMPDEST PUSH2 0x242 DUP2 PUSH2 0x230 JUMP JUMPDEST DUP2 EQ PUSH2 0x24C JUMPI PUSH0 DUP1 REVERT JUMPDEST POP JUMP JUMPDEST PUSH0 DUP2 CALLDATALOAD SWAP1 POP PUSH2 0x25D DUP2 PUSH2 0x239 JUMP JUMPDEST SWAP3 SWAP2 POP POP JUMP JUMPDEST PUSH0 PUSH1 0x20 DUP3 DUP5 SUB SLT ISZERO PUSH2 0x278 JUMPI PUSH2 0x277 PUSH2 0x22C JUMP JUMPDEST JUMPDEST PUSH0 PUSH2 0x285 DUP5 DUP3 DUP6 ADD PUSH2 0x24F JUMP JUMPDEST SWAP2 POP POP SWAP3 SWAP2 POP POP JUMP JUMPDEST PUSH2 0x297 DUP2 PUSH2 0x230 JUMP JUMPDEST DUP3 MSTORE POP POP JUMP JUMPDEST PUSH0 PUSH1 0x20 DUP3 ADD SWAP1 POP PUSH2 0x2B0 PUSH0 DUP4 ADD DUP5 PUSH2 0x28E JUMP JUMPDEST SWAP3 SWAP2 POP POP JUMP JUMPDEST PUSH0 DUP3 DUP3 MSTORE PUSH1 0x20 DUP3 ADD SWAP1 POP SWAP3 SWAP2 POP POP JUMP JUMPDEST PUSH32 0x4D75737420626520677265616572207468616E20313000000000000000000000 PUSH0 DUP3 ADD MSTORE POP JUMP JUMPDEST PUSH0 PUSH2 0x2FA PUSH1 0x16 DUP4 PUSH2 0x2B6 JUMP JUMPDEST SWAP2 POP PUSH2 0x305 DUP3 PUSH2 0x2C6 JUMP JUMPDEST PUSH1 0x20 DUP3 ADD SWAP1 POP SWAP2 SWAP1 POP JUMP JUMPDEST PUSH0 PUSH1 0x20 DUP3 ADD SWAP1 POP DUP2 DUP2 SUB PUSH0 DUP4 ADD MSTORE PUSH2 0x327 DUP2 PUSH2 0x2EE JUMP JUMPDEST SWAP1 POP SWAP2 SWAP1 POP JUMP JUMPDEST PUSH32 0x4E487B7100000000000000000000000000000000000000000000000000000000 PUSH0 MSTORE PUSH1 0x1 PUSH1 0x4 MSTORE PUSH1 0x24 PUSH0 REVERT JUMPDEST PUSH0 PUSH20 0xFFFFFFFFFFFFFFFFFFFFFFFFFFFFFFFFFFFFFFFF DUP3 AND SWAP1 POP SWAP2 SWAP1 POP JUMP JUMPDEST PUSH0 PUSH2 0x384 DUP3 PUSH2 0x35B JUMP JUMPDEST SWAP1 POP SWAP2 SWAP1 POP JUMP JUMPDEST PUSH2 0x394 DUP2 PUSH2 0x37A JUMP JUMPDEST DUP3 MSTORE POP POP JUMP JUMPDEST PUSH0 PUSH1 0x40 DUP3 ADD SWAP1 POP PUSH2 0x3AD PUSH0 DUP4 ADD DUP6 PUSH2 0x28E JUMP JUMPDEST PUSH2 0x3BA PUSH1 0x20 DUP4 ADD DUP5 PUSH2 0x38B JUMP JUMPDEST SWAP4 SWAP3 POP POP POP JUMP JUMPDEST PUSH32 0x496E73756666696369656E742062616C616E6365000000000000000000000000 PUSH0 DUP3 ADD MSTORE POP JUMP JUMPDEST PUSH0 PUSH2 0x3F5 PUSH1 0x14 DUP4 PUSH2 0x2B6 JUMP JUMPDEST SWAP2 POP PUSH2 0x400 DUP3 PUSH2 0x3C1 JUMP JUMPDEST PUSH1 0x20 DUP3 ADD SWAP1 POP SWAP2 SWAP1 POP JUMP JUMPDEST PUSH0 PUSH1 0x20 DUP3 ADD SWAP1 POP DUP2 DUP2 SUB PUSH0 DUP4 ADD MSTORE PUSH2 0x422 DUP2 PUSH2 0x3E9 JUMP JUMPDEST SWAP1 POP SWAP2 SWAP1 POP JUMP JUMPDEST PUSH32 0x4D7573742062652067726561746572207468616E203130000000000000000000 PUSH0 DUP3 ADD MSTORE POP JUMP JUMPDEST PUSH0 PUSH2 0x45D PUSH1 0x17 DUP4 PUSH2 0x2B6 JUMP JUMPDEST SWAP2 POP PUSH2 0x468 DUP3 PUSH2 0x429 JUMP JUMPDEST PUSH1 0x20 DUP3 ADD SWAP1 POP SWAP2 SWAP1 POP JUMP JUMPDEST PUSH0 PUSH1 0x20 DUP3 ADD SWAP1 POP DUP2 DUP2 SUB PUSH0 DUP4 ADD MSTORE PUSH2 0x48A DUP2 PUSH2 0x451 JUMP JUMPDEST SWAP1 POP SWAP2 SWAP1 POP JUMP INVALID LOG2 PUSH5 0x6970667358 0x22 SLT KECCAK256 PUSH4 0xCF48FCB8 EXTCODESIZE SWAP4 0xC0 0xE2 CALLVALUE GASPRICE 0x27 SWAP14 RETURNDATACOPY 0xEF SGT REVERT PUSH30 0x16433FD2B5E62662D2C7015AAD5064736F6C634300081400330000000000 "
				},
				"gasEstimates": {
					"creation": {
						"codeDepositCost": "244600",
						"executionCost": "44496",
						"totalCost": "289096"
					},
					"external": {
						"myNumber()": "2424",
						"testAssert()": "2314",
						"testRevert(uint256)": "684",
						"testRquire(uint256)": "772",
						"userBalance()": "2513",
						"withdraw(uint256)": "infinite"
					}
				},
				"methodIdentifiers": {
					"myNumber()": "23fd0e40",
					"testAssert()": "2b813bc0",
					"testRevert(uint256)": "20987767",
					"testRquire(uint256)": "9b74be8f",
					"userBalance()": "bf152765",
					"withdraw(uint256)": "2e1a7d4d"
				}
			},
			"storageLayout": {
				"storage": [
					{
						"astId": 32,
						"contract": "contracts/Errors.sol:Errors",
						"label": "myNumber",
						"offset": 0,
						"slot": "0",
						"type": "t_uint256"
					},
					{
						"astId": 55,
						"contract": "contracts/Errors.sol:Errors",
						"label": "userBalance",
						"offset": 0,
						"slot": "1",
						"type": "t_uint256"
					}
				],
				"types": {
					"t_uint256": {
						"encoding": "inplace",
						"label": "uint256",
						"numberOfBytes": "32"
					}
				}
			},
			"userdoc": {
				"kind": "user",
				"methods": {},
				"version": 1
			}
		}
	}
}