{
	"data": {
		"bytecode": {
			"linkReferences": {},
			"object": "608060405234801561000f575f80fd5b506102c18061001d5f395ff3fe608060405234801561000f575f80fd5b506004361061004a575f3560e01c80637297237f1461004e578063868875441461006f57806395dc14351461008f578063f1cda997146100af575b5f80fd5b6100566100cf565b604051610066949392919061020c565b60405180910390f35b6100776100ff565b60405161008693929190610256565b60405180910390f35b610097610112565b6040516100a693929190610256565b60405180910390f35b6100b7610125565b6040516100c693929190610256565b60405180910390f35b5f8060605f805f806100df6100ff565b9250925092505f806100ef610112565b9250509150505050505090919293565b5f805f600180600a925092509250909192565b5f805f600a92505f915060649050909192565b5f805f600180600a925092509250909192565b5f819050919050565b61014a81610138565b82525050565b5f8115159050919050565b61016481610150565b82525050565b5f81519050919050565b5f82825260208201905092915050565b5f5b838110156101a1578082015181840152602081019050610186565b5f8484015250505050565b5f601f19601f8301169050919050565b5f6101c68261016a565b6101d08185610174565b93506101e0818560208601610184565b6101e9816101ac565b840191505092915050565b5f819050919050565b610206816101f4565b82525050565b5f60808201905061021f5f830187610141565b61022c602083018661015b565b818103604083015261023e81856101bc565b905061024d60608301846101fd565b95945050505050565b5f6060820190506102695f830186610141565b610276602083018561015b565b61028360408301846101fd565b94935050505056fea26469706673582212209e889614839661ca5d489ccdd862afcc4653e7a53ebe7fe98ad1477c5be7100964736f6c63430008140033",
			"opcodes": "PUSH1 0x80 PUSH1 0x40 MSTORE CALLVALUE DUP1 ISZERO PUSH2 0xF JUMPI PUSH0 DUP1 REVERT JUMPDEST POP PUSH2 0x2C1 DUP1 PUSH2 0x1D PUSH0 CODECOPY PUSH0 RETURN INVALID PUSH1 0x80 PUSH1 0x40 MSTORE CALLVALUE DUP1 ISZERO PUSH2 0xF JUMPI PUSH0 DUP1 REVERT JUMPDEST POP PUSH1 0x4 CALLDATASIZE LT PUSH2 0x4A JUMPI PUSH0 CALLDATALOAD PUSH1 0xE0 SHR DUP1 PUSH4 0x7297237F EQ PUSH2 0x4E JUMPI DUP1 PUSH4 0x86887544 EQ PUSH2 0x6F JUMPI DUP1 PUSH4 0x95DC1435 EQ PUSH2 0x8F JUMPI DUP1 PUSH4 0xF1CDA997 EQ PUSH2 0xAF JUMPI JUMPDEST PUSH0 DUP1 REVERT JUMPDEST PUSH2 0x56 PUSH2 0xCF JUMP JUMPDEST PUSH1 0x40 MLOAD PUSH2 0x66 SWAP5 SWAP4 SWAP3 SWAP2 SWAP1 PUSH2 0x20C JUMP JUMPDEST PUSH1 0x40 MLOAD DUP1 SWAP2 SUB SWAP1 RETURN JUMPDEST PUSH2 0x77 PUSH2 0xFF JUMP JUMPDEST PUSH1 0x40 MLOAD PUSH2 0x86 SWAP4 SWAP3 SWAP2 SWAP1 PUSH2 0x256 JUMP JUMPDEST PUSH1 0x40 MLOAD DUP1 SWAP2 SUB SWAP1 RETURN JUMPDEST PUSH2 0x97 PUSH2 0x112 JUMP JUMPDEST PUSH1 0x40 MLOAD PUSH2 0xA6 SWAP4 SWAP3 SWAP2 SWAP1 PUSH2 0x256 JUMP JUMPDEST PUSH1 0x40 MLOAD DUP1 SWAP2 SUB SWAP1 RETURN JUMPDEST PUSH2 0xB7 PUSH2 0x125 JUMP JUMPDEST PUSH1 0x40 MLOAD PUSH2 0xC6 SWAP4 SWAP3 SWAP2 SWAP1 PUSH2 0x256 JUMP JUMPDEST PUSH1 0x40 MLOAD DUP1 SWAP2 SUB SWAP1 RETURN JUMPDEST PUSH0 DUP1 PUSH1 0x60 PUSH0 DUP1 PUSH0 DUP1 PUSH2 0xDF PUSH2 0xFF JUMP JUMPDEST SWAP3 POP SWAP3 POP SWAP3 POP PUSH0 DUP1 PUSH2 0xEF PUSH2 0x112 JUMP JUMPDEST SWAP3 POP POP SWAP2 POP POP POP POP POP POP SWAP1 SWAP2 SWAP3 SWAP4 JUMP JUMPDEST PUSH0 DUP1 PUSH0 PUSH1 0x1 DUP1 PUSH1 0xA SWAP3 POP SWAP3 POP SWAP3 POP SWAP1 SWAP2 SWAP3 JUMP JUMPDEST PUSH0 DUP1 PUSH0 PUSH1 0xA SWAP3 POP PUSH0 SWAP2 POP PUSH1 0x64 SWAP1 POP SWAP1 SWAP2 SWAP3 JUMP JUMPDEST PUSH0 DUP1 PUSH0 PUSH1 0x1 DUP1 PUSH1 0xA SWAP3 POP SWAP3 POP SWAP3 POP SWAP1 SWAP2 SWAP3 JUMP JUMPDEST PUSH0 DUP2 SWAP1 POP SWAP2 SWAP1 POP JUMP JUMPDEST PUSH2 0x14A DUP2 PUSH2 0x138 JUMP JUMPDEST DUP3 MSTORE POP POP JUMP JUMPDEST PUSH0 DUP2 ISZERO ISZERO SWAP1 POP SWAP2 SWAP1 POP JUMP JUMPDEST PUSH2 0x164 DUP2 PUSH2 0x150 JUMP JUMPDEST DUP3 MSTORE POP POP JUMP JUMPDEST PUSH0 DUP2 MLOAD SWAP1 POP SWAP2 SWAP1 POP JUMP JUMPDEST PUSH0 DUP3 DUP3 MSTORE PUSH1 0x20 DUP3 ADD SWAP1 POP SWAP3 SWAP2 POP POP JUMP JUMPDEST PUSH0 JUMPDEST DUP4 DUP2 LT ISZERO PUSH2 0x1A1 JUMPI DUP1 DUP3 ADD MLOAD DUP2 DUP5 ADD MSTORE PUSH1 0x20 DUP2 ADD SWAP1 POP PUSH2 0x186 JUMP JUMPDEST PUSH0 DUP5 DUP5 ADD MSTORE POP POP POP POP JUMP JUMPDEST PUSH0 PUSH1 0x1F NOT PUSH1 0x1F DUP4 ADD AND SWAP1 POP SWAP2 SWAP1 POP JUMP JUMPDEST PUSH0 PUSH2 0x1C6 DUP3 PUSH2 0x16A JUMP JUMPDEST PUSH2 0x1D0 DUP2 DUP6 PUSH2 0x174 JUMP JUMPDEST SWAP4 POP PUSH2 0x1E0 DUP2 DUP6 PUSH1 0x20 DUP7 ADD PUSH2 0x184 JUMP JUMPDEST PUSH2 0x1E9 DUP2 PUSH2 0x1AC JUMP JUMPDEST DUP5 ADD SWAP2 POP POP SWAP3 SWAP2 POP POP JUMP JUMPDEST PUSH0 DUP2 SWAP1 POP SWAP2 SWAP1 POP JUMP JUMPDEST PUSH2 0x206 DUP2 PUSH2 0x1F4 JUMP JUMPDEST DUP3 MSTORE POP POP JUMP JUMPDEST PUSH0 PUSH1 0x80 DUP3 ADD SWAP1 POP PUSH2 0x21F PUSH0 DUP4 ADD DUP8 PUSH2 0x141 JUMP JUMPDEST PUSH2 0x22C PUSH1 0x20 DUP4 ADD DUP7 PUSH2 0x15B JUMP JUMPDEST DUP2 DUP2 SUB PUSH1 0x40 DUP4 ADD MSTORE PUSH2 0x23E DUP2 DUP6 PUSH2 0x1BC JUMP JUMPDEST SWAP1 POP PUSH2 0x24D PUSH1 0x60 DUP4 ADD DUP5 PUSH2 0x1FD JUMP JUMPDEST SWAP6 SWAP5 POP POP POP POP POP JUMP JUMPDEST PUSH0 PUSH1 0x60 DUP3 ADD SWAP1 POP PUSH2 0x269 PUSH0 DUP4 ADD DUP7 PUSH2 0x141 JUMP JUMPDEST PUSH2 0x276 PUSH1 0x20 DUP4 ADD DUP6 PUSH2 0x15B JUMP JUMPDEST PUSH2 0x283 PUSH1 0x40 DUP4 ADD DUP5 PUSH2 0x1FD JUMP JUMPDEST SWAP5 SWAP4 POP POP POP POP JUMP INVALID LOG2 PUSH5 0x6970667358 0x22 SLT KECCAK256 SWAP15 DUP9 SWAP7 EQ DUP4 SWAP7 PUSH2 0xCA5D BASEFEE SWAP13 0xCD 0xD8 PUSH3 0xAFCC46 MSTORE8 0xE7 0xA5 RETURNDATACOPY 0xBE PUSH32 0xE98AD1477C5BE7100964736F6C63430008140033000000000000000000000000 "
		},
		"gasEstimates": {
			"creation": {
				"codeDepositCost": "141000",
				"executionCost": "188",
				"totalCost": "141188"
			},
			"external": {
				"destructuring()": "infinite",
				"returnMany()": "563",
				"returnWhitValue()": "584",
				"returnWithName()": "607"
			}
		},
		"methodIdentifiers": {
			"destructuring()": "7297237f",
			"returnMany()": "86887544",
			"returnWhitValue()": "95dc1435",
			"returnWithName()": "f1cda997"
		}
	},
	"abi": [
		{
			"inputs": [],
			"name": "destructuring",
			"outputs": [
				{
					"internalType": "uint256",
					"name": "x",
					"type": "uint256"
				},
				{
					"internalType": "bool",
					"name": "y",
					"type": "bool"
				},
				{
					"internalType": "string",
					"name": "z",
					"type": "string"
				},
				{
					"internalType": "int256",
					"name": "a",
					"type": "int256"
				}
			],
			"stateMutability": "pure",
			"type": "function"
		},
		{
			"inputs": [],
			"name": "returnMany",
			"outputs": [
				{
					"internalType": "uint256",
					"name": "",
					"type": "uint256"
				},
				{
					"internalType": "bool",
					"name": "",
					"type": "bool"
				},
				{
					"internalType": "int256",
					"name": "",
					"type": "int256"
				}
			],
			"stateMutability": "pure",
			"type": "function"
		},
		{
			"inputs": [],
			"name": "returnWhitValue",
			"outputs": [
				{
					"internalType": "uint256",
					"name": "x",
					"type": "uint256"
				},
				{
					"internalType": "bool",
					"name": "y",
					"type": "bool"
				},
				{
					"internalType": "int256",
					"name": "z",
					"type": "int256"
				}
			],
			"stateMutability": "pure",
			"type": "function"
		},
		{
			"inputs": [],
			"name": "returnWithName",
			"outputs": [
				{
					"internalType": "uint256",
					"name": "x",
					"type": "uint256"
				},
				{
					"internalType": "bool",
					"name": "y",
					"type": "bool"
				},
				{
					"internalType": "int256",
					"name": "z",
					"type": "int256"
				}
			],
			"stateMutability": "pure",
			"type": "function"
		}
	]
}