{
	"data": {
		"bytecode": {
			"linkReferences": {},
			"object": "608060405234801561000f575f80fd5b5061024a8061001d5f395ff3fe608060405234801561000f575f80fd5b5060043610610055575f3560e01c806323fd0e401461005957806338cc4831146100775780633fb5c1cb146100955780635e01eb5a146100b1578063da235b22146100cf575b5f80fd5b6100616100ed565b60405161006e919061014a565b60405180910390f35b61007f6100f3565b60405161008c91906101a2565b60405180910390f35b6100af60048036038101906100aa91906101e9565b61011a565b005b6100b9610124565b6040516100c691906101a2565b60405180910390f35b6100d761012b565b6040516100e4919061014a565b60405180910390f35b60015481565b5f805f9054906101000a900473ffffffffffffffffffffffffffffffffffffffff16905090565b8060018190555050565b5f33905090565b5f42905090565b5f819050919050565b61014481610132565b82525050565b5f60208201905061015d5f83018461013b565b92915050565b5f73ffffffffffffffffffffffffffffffffffffffff82169050919050565b5f61018c82610163565b9050919050565b61019c81610182565b82525050565b5f6020820190506101b55f830184610193565b92915050565b5f80fd5b6101c881610132565b81146101d2575f80fd5b50565b5f813590506101e3816101bf565b92915050565b5f602082840312156101fe576101fd6101bb565b5b5f61020b848285016101d5565b9150509291505056fea26469706673582212209d34a0dc24a6f768149150d47d96383fdbf9620897200f324c4c1c6967b30c0164736f6c63430008140033",
			"opcodes": "PUSH1 0x80 PUSH1 0x40 MSTORE CALLVALUE DUP1 ISZERO PUSH2 0xF JUMPI PUSH0 DUP1 REVERT JUMPDEST POP PUSH2 0x24A DUP1 PUSH2 0x1D PUSH0 CODECOPY PUSH0 RETURN INVALID PUSH1 0x80 PUSH1 0x40 MSTORE CALLVALUE DUP1 ISZERO PUSH2 0xF JUMPI PUSH0 DUP1 REVERT JUMPDEST POP PUSH1 0x4 CALLDATASIZE LT PUSH2 0x55 JUMPI PUSH0 CALLDATALOAD PUSH1 0xE0 SHR DUP1 PUSH4 0x23FD0E40 EQ PUSH2 0x59 JUMPI DUP1 PUSH4 0x38CC4831 EQ PUSH2 0x77 JUMPI DUP1 PUSH4 0x3FB5C1CB EQ PUSH2 0x95 JUMPI DUP1 PUSH4 0x5E01EB5A EQ PUSH2 0xB1 JUMPI DUP1 PUSH4 0xDA235B22 EQ PUSH2 0xCF JUMPI JUMPDEST PUSH0 DUP1 REVERT JUMPDEST PUSH2 0x61 PUSH2 0xED JUMP JUMPDEST PUSH1 0x40 MLOAD PUSH2 0x6E SWAP2 SWAP1 PUSH2 0x14A JUMP JUMPDEST PUSH1 0x40 MLOAD DUP1 SWAP2 SUB SWAP1 RETURN JUMPDEST PUSH2 0x7F PUSH2 0xF3 JUMP JUMPDEST PUSH1 0x40 MLOAD PUSH2 0x8C SWAP2 SWAP1 PUSH2 0x1A2 JUMP JUMPDEST PUSH1 0x40 MLOAD DUP1 SWAP2 SUB SWAP1 RETURN JUMPDEST PUSH2 0xAF PUSH1 0x4 DUP1 CALLDATASIZE SUB DUP2 ADD SWAP1 PUSH2 0xAA SWAP2 SWAP1 PUSH2 0x1E9 JUMP JUMPDEST PUSH2 0x11A JUMP JUMPDEST STOP JUMPDEST PUSH2 0xB9 PUSH2 0x124 JUMP JUMPDEST PUSH1 0x40 MLOAD PUSH2 0xC6 SWAP2 SWAP1 PUSH2 0x1A2 JUMP JUMPDEST PUSH1 0x40 MLOAD DUP1 SWAP2 SUB SWAP1 RETURN JUMPDEST PUSH2 0xD7 PUSH2 0x12B JUMP JUMPDEST PUSH1 0x40 MLOAD PUSH2 0xE4 SWAP2 SWAP1 PUSH2 0x14A JUMP JUMPDEST PUSH1 0x40 MLOAD DUP1 SWAP2 SUB SWAP1 RETURN JUMPDEST PUSH1 0x1 SLOAD DUP2 JUMP JUMPDEST PUSH0 DUP1 PUSH0 SWAP1 SLOAD SWAP1 PUSH2 0x100 EXP SWAP1 DIV PUSH20 0xFFFFFFFFFFFFFFFFFFFFFFFFFFFFFFFFFFFFFFFF AND SWAP1 POP SWAP1 JUMP JUMPDEST DUP1 PUSH1 0x1 DUP2 SWAP1 SSTORE POP POP JUMP JUMPDEST PUSH0 CALLER SWAP1 POP SWAP1 JUMP JUMPDEST PUSH0 TIMESTAMP SWAP1 POP SWAP1 JUMP JUMPDEST PUSH0 DUP2 SWAP1 POP SWAP2 SWAP1 POP JUMP JUMPDEST PUSH2 0x144 DUP2 PUSH2 0x132 JUMP JUMPDEST DUP3 MSTORE POP POP JUMP JUMPDEST PUSH0 PUSH1 0x20 DUP3 ADD SWAP1 POP PUSH2 0x15D PUSH0 DUP4 ADD DUP5 PUSH2 0x13B JUMP JUMPDEST SWAP3 SWAP2 POP POP JUMP JUMPDEST PUSH0 PUSH20 0xFFFFFFFFFFFFFFFFFFFFFFFFFFFFFFFFFFFFFFFF DUP3 AND SWAP1 POP SWAP2 SWAP1 POP JUMP JUMPDEST PUSH0 PUSH2 0x18C DUP3 PUSH2 0x163 JUMP JUMPDEST SWAP1 POP SWAP2 SWAP1 POP JUMP JUMPDEST PUSH2 0x19C DUP2 PUSH2 0x182 JUMP JUMPDEST DUP3 MSTORE POP POP JUMP JUMPDEST PUSH0 PUSH1 0x20 DUP3 ADD SWAP1 POP PUSH2 0x1B5 PUSH0 DUP4 ADD DUP5 PUSH2 0x193 JUMP JUMPDEST SWAP3 SWAP2 POP POP JUMP JUMPDEST PUSH0 DUP1 REVERT JUMPDEST PUSH2 0x1C8 DUP2 PUSH2 0x132 JUMP JUMPDEST DUP2 EQ PUSH2 0x1D2 JUMPI PUSH0 DUP1 REVERT JUMPDEST POP JUMP JUMPDEST PUSH0 DUP2 CALLDATALOAD SWAP1 POP PUSH2 0x1E3 DUP2 PUSH2 0x1BF JUMP JUMPDEST SWAP3 SWAP2 POP POP JUMP JUMPDEST PUSH0 PUSH1 0x20 DUP3 DUP5 SUB SLT ISZERO PUSH2 0x1FE JUMPI PUSH2 0x1FD PUSH2 0x1BB JUMP JUMPDEST JUMPDEST PUSH0 PUSH2 0x20B DUP5 DUP3 DUP6 ADD PUSH2 0x1D5 JUMP JUMPDEST SWAP2 POP POP SWAP3 SWAP2 POP POP JUMP INVALID LOG2 PUSH5 0x6970667358 0x22 SLT KECCAK256 SWAP14 CALLVALUE LOG0 0xDC 0x24 0xA6 0xF7 PUSH9 0x149150D47D96383FDB 0xF9 PUSH3 0x89720 0xF ORIGIN 0x4C 0x4C SHR PUSH10 0x67B30C0164736F6C6343 STOP ADDMOD EQ STOP CALLER "
		},
		"gasEstimates": {
			"creation": {
				"codeDepositCost": "117200",
				"executionCost": "163",
				"totalCost": "117363"
			},
			"external": {
				"getAddress()": "2515",
				"getSender()": "423",
				"getTimeStamp()": "397",
				"myNumber()": "2403",
				"setNumber(uint256)": "22537"
			}
		},
		"methodIdentifiers": {
			"getAddress()": "38cc4831",
			"getSender()": "5e01eb5a",
			"getTimeStamp()": "da235b22",
			"myNumber()": "23fd0e40",
			"setNumber(uint256)": "3fb5c1cb"
		}
	},
	"abi": [
		{
			"inputs": [],
			"name": "getAddress",
			"outputs": [
				{
					"internalType": "address",
					"name": "",
					"type": "address"
				}
			],
			"stateMutability": "view",
			"type": "function"
		},
		{
			"inputs": [],
			"name": "getSender",
			"outputs": [
				{
					"internalType": "address",
					"name": "",
					"type": "address"
				}
			],
			"stateMutability": "view",
			"type": "function"
		},
		{
			"inputs": [],
			"name": "getTimeStamp",
			"outputs": [
				{
					"internalType": "uint256",
					"name": "",
					"type": "uint256"
				}
			],
			"stateMutability": "view",
			"type": "function"
		},
		{
			"inputs": [],
			"name": "myNumber",
			"outputs": [
				{
					"internalType": "uint256",
					"name": "",
					"type": "uint256"
				}
			],
			"stateMutability": "view",
			"type": "function"
		},
		{
			"inputs": [
				{
					"internalType": "uint256",
					"name": "_myNumber",
					"type": "uint256"
				}
			],
			"name": "setNumber",
			"outputs": [],
			"stateMutability": "nonpayable",
			"type": "function"
		}
	]
}